:100000008810002045020000B5020000C102000077
:10001000B9020000AD0200003F0200000000000035
:10002000000000000000000000000000ED0C0000D7
:10003000BD02000000000000CD0C0000B102000075
:10004000B1020000B1020000B1020000B1020000E4
:10005000B1020000B1020000B1020000B1020000D4
:10006000B1020000490F0000B1020000B10200001F
:10007000B1020000B1020000B1020000B1020000B4
:10008000B1020000B102000081120000F512000070
:10009000B1020000B1020000B1020000B102000094
:1000A000B1020000B1020000B1020000B102000084
:1000B00007B5074B074A7B449B58019300229B5E80
:1000C000002B04D0080001F089F901F097F907BD71
:1000D0009E3900002C0000001FB50020E121064BD6
:1000E000064A7B449B584902039300900300039AFD
:1000F00000F0EEFE05B000BD7239000030000000D7
:10010000704700000100074810B5784402F0DEF99E
:10011000BFF34F8F044A054BDA60BFF34F8FC046E1
:10012000FDE7C046BE3600000400FA0500ED00E021
:10013000F7B50E00134D070000F025FD124B7D446E
:10014000EB581C681A00A319002E07DD0F496958E7
:10015000019199420BD39C420ED908E0002E0BD09E
:100160000B4969580191994201D89C4204D20C2351
:1001700001243B60644200E0136000F00CFD2000AD
:10018000FEBDC046163900002400000058000000E3
:1001900010000000044B054A7B449B5882B018882D
:1001A000019300B202B07047BC38000000000000AC
:1001B00003230360012040427047132303600120A2
:1001C0004042704710B5140001F02CF92070012056
:1001D00010BD70B51D001400D618B44205D02178AA
:1001E000002000F001FE0134F7E7280070BD132362
:1001F0000360012040427047132303600120404206
:1002000070471323036001204042704713230360AB
:1002100001204042704700230222036018008A42F6
:10022000584170471323036001204042704710B5C6
:1002300002F0FAF8032303600120404210BDC046DB
:10024000FDE7000007B50022124B13497B445958C3
:100250000091124959580191009901985118814211
:1002600005D20F481858805804320860F4E70D4A48
:100270000D499A585B580093002300998A4201D295
:1002800008C2FAE701F00EF902F0D4F800F00EF916
:1002900007BDC046083800001C0000005C000000DC
:1002A0000C0000001800000044000000C046FDE7FC
:1002B000C046FDE7C046FDE7C046FDE7C046FDE796
:1002C000C046FDE7F7B50024134D144B7D44EB58B1
:1002D0001C60134BEE58134B37687B44186800F0D2
:1002E00052FB114B8000EB580193C35820000C3B8C
:1002F0009F420FD0A74204D0BA88062A01D101320A
:10030000BA800622012009499A806958DA88019149
:100310000A803360FEBDC046883700000800000038
:10032000400000006AFEFF1F1400000000000000F3
:1003300073B51A4B04007B440D008288052913D93C
:10034000052A29D82100164A00899B588000C01828
:100350000C31019300F070F801232189114A8B4080
:100360007A4411680B4316E0052A15D921000C4A7E
:1003700000899E5880000C31801900F073F82189A3
:100380008B009B59002B07D101338B40064A7A44DE
:10039000116899430B001360A58073BD1E370000E0
:1003A00014000000E4FDFF1FB6FDFF1F10B50B4C4D
:1003B0000B4B7C44E3581B689A88052A02D91B8999
:1003C00083420AD900F0EAFB002804D00122054B41
:1003D000E3581A6001E000F06FFC10BDA236000087
:1003E000400000000800000037B500250D4C00F06B
:1003F000CAFB0D4B7C44E3580C4A01931B88A2585E
:100400001BB29B009D500A4B0192E25829001368D1
:10041000013B1360074BE4582068FFF789FF256014
:1004200000F046FC603600000000000060000000A4
:1004300038000000400000000368002B0ED00B6065
:1004400003685B684B6003685B6819600368596008
:1004500003685A68934204D1596002E00160096060
:10046000496070470B68994207D04A6813600B686F
:100470005A600268914202D100E000230360704795
:1004800010B501F033F801F01DF8002010BD000098
:1004900010B5044C7C44044B0120E3581B6800F069
:1004A0003CFCF8E7C03500003C0000001FB500F040
:1004B0006AFB1F491F4879441F4C784402F006F834
:1004C00000F0F0F91D4B7C44E35880211B681C4868
:1004D0000293002301931B4B0F227B44009349009E
:1004E0000C23784400F0CAF8002803DA1648784450
:1004F00001F0ECFF154BC021E35815481B6807229B
:10050000029300230193134BC9007B44009378446A
:100510000C2300F0B3F8002803DA0F48784401F008
:10052000D5FF0E48784401F0D1FF00F0C1FBC04672
:1005300029330000483300008E35000034000000ED
:1005400066FCFF1FB3FFFFFF4033000068000000A0
:100550003AFDFF1F73FFFFFF3C3300005E330000D6
:100560000749431E9BB2794482B000221F2B04D856
:10057000044B8000CB58C2580193100002B0704762
:10058000EE3400006000000010B5FFF7E9FF00281E
:1005900002D0808880B201E00120404210BD10B539
:1005A000FFF7DEFF002800D0006B10BD70B50A4CCD
:1005B0007C4400F0F3FA00280DD100F0E4FA0500C5
:1005C000064B0121E3581868FFF7B2FE280000F03F
:1005D000E2FA00F071FB70BDA4340000400000009E
:1005E00073B5040000F0CFFA0F4D104B7D44EB586B
:1005F000A400E55806000193002D0ED0AC88012C14
:100600000BD106212800FFF793FE300000F0C3FA5B
:100610002889FFF7CBFE200004E0300000F0BBFA91
:100620000120404276BDC0466834000060000000F2
:1006300010B50B4C00F0A7FA0A4B7C44E3581B683A
:100640009A88052A06D9084A1B89A2589B009958FE
:100650000968995000F09FFA00F02EFB10BDC046CB
:100660001A340000400000001400000003001A6863
:100670009A4201D10433FAE7181A7047F0B53C4F9B
:1006800087B002910592039306007F440F2A2CD86D
:1006900003230340191E029B04D00422531A029A1A
:1006A000C618D31A0322383B93430493F418039BD0
:1006B0001B0705D53300A34203D21B600433FAE7BE
:1006C000367000F060FA01232A4A0090BA5899B2B5
:1006D000019199005558002D09D00133212BF6D1F5
:1006E000009800F058FA24483EE024483CE06B466D
:1006F0009B888C500C983200E3800D99049B00F08D
:1007000051FA029BE66263630E9B012123636B46F1
:100710009E8A01235B426362194B20602681A5807B
:10072000E56025616561A561E5612562A562FA580C
:10073000136801331360039B0B4203D02000FFF7C3
:10074000F7FD0DE007212000FFF7F2FD039B5B079B
:1007500006D4009800F01FFA3000FFF727FE02E0F1
:10076000009800F018FA019800B207B0F0BDC0463A
:10077000CA3300006000000075FF0000EAFF0000BF
:100780003800000070B5040001000948094D7844A4
:1007900000F0D6F9084B7D44EA58E4001368013BA9
:1007A0001360064B7B441A195068E358984770BD94
:1007B000BE000020BE3200003C000000B40000205B
:1007C00010B500F035F910BDF0B585B00191029279
:1007D0000393070000F0D7F905001748174E784437
:1007E00000F0C4F97E440400431C07D1280000F047
:1007F000D2F91348784401F069FE19E0114A0199D1
:100800007A44C3009950D318029A01B25A60039BEC
:100810003800002B02D000F0BBFA01E000F0B2FA81
:10082000094B2800F25813680133136000F0B3F944
:10083000200005B0F0BDC0466E0000207032000000
:10084000C3300000580000203C00000070B50400D8
:1008500000F0AAFA0419051EA54203D900F0A4FA73
:100860008542FBD300F0A0FA8442FBD870BD0000A3
:1008700010B50100094C0A487C44784400F062FA43
:100880002000022100F051F92000002100F058F969
:100890000121200000F054F910BDC046D4FFFF1F15
:1008A00007FFFFFF10B50248FFF7E2FF10BDC0468B
:1008B000006CDC02034810B5784400F031F9434283
:1008C000584110BD94FFFF1F10B500F06DFA10BD28
:1008D00010B50023FFF778FF10BD000037B5051EE7
:1008E000062D13D900F05AF900280FD1009001907D
:1008F000684600F06DF80949A81E6A467944FFF77A
:10090000E7FF431C06D1684600F092F82800FFF785
:100910009DFF02E0684600F05BF837BDC1FEFFFFB7
:1009200010B50123FFF750FF10BD000070B50400A3
:1009300000F029F9050020B200F030FA0A48210041
:10094000784400F0FDF80022084BE4007B44084E98
:10095000E250084B7E44F25828001368013B1360B4
:1009600000F019F9012070BD0CFFFF1F0CFFFF1FE5
:10097000003100003C0000000023400801D001339A
:10098000FBE71800704700230122104202D1400803
:100990000133FAE71800704703000020002B03D052
:1009A0005A1E13400130F9E7704710B50400216862
:1009B000002907D10122200000F07CF80028F6D0A1
:1009C000012000E0002010BD10B5FFF7EEFF10BDC4
:1009D000F0B5154F85B004007F44FFF7E6FF00280F
:1009E0001FD100F0D0F805002000FFF7DEFF061E43
:1009F00003D0280000F0CFF813E00C4B0221FF5881
:100A00003868FFF795FC3B6801A91A89201D4A60E8
:100A10008B60019600F074F8280000F0BCF800F03C
:100A20004BF905B0F0BDC0467C300000400000002E
:100A300070B5040000F0A7F823680500002B0ED065
:100A4000201D00F056F8002808D0846807212000F7
:100A5000FFF76EFC2089FFF7A9FC00E0206028006A
:100A600000F099F870BD000070B5040000F08BF83C
:100A70000E4D23687D440600002B0AD0201D00F097
:100A800038F8002804D007218068FFF751FC00E007
:100A90002060074B0121EB581868FFF749FC300034
:100AA00000F079F800F008F970BDC046E02F0000B2
:100AB0004000000070B504000E00150000F063F85F
:100AC0002368B34203D000F066F8002003E02560FD
:100AD00000F061F8012070BD0368002B08D08B4244
:100AE00004D10B68036000230B6001E01800F3E7FA
:100AF00070470368002B01D01A6802601800704725
:100B00000368002B09D05A6894464A68944502D974
:100B10000B60016003E01800F2E701600B607047B2
:100B2000006801304342584170470122002310B54C
:100B300052428B4203DC9C0002510133F9E710BDA5
:100B400070B50E0001318D0045192A680400531C50
:100B500006D00368581C03D00348784401F0B6FC63
:100B600023682B60266070BD6E2D000003000068B6
:100B7000421C411C02D09100C95819600121920009
:100B80004942D1507047EFF3108072B6704762B699
:100B9000EFF31080704780F310887047EFF3058003
:100BA000C0B2704737B5D3180322214D9343214A71
:100BB0001C1F7D442260620703D0083B1C001E4BB3
:100BC00023608022231F52041A60043B1B4A1860D2
:100BD000AA58043B1A6001920022043B1A60043BAD
:100BE00003321A60043B013A1A60043B013A1A606E
:100BF000043B19600632043B1A60043B013A1A6058
:100C0000043B013A1A60043B013A1A60043B073284
:100C10001A60043B013A1A60043B013A1A60043B33
:100C2000013A1A602000032344385B4203603EBD52
:100C3000A22E0000777777778888888804000000E4
:100C400037B5134B134A7B449A58134812687844BB
:100C50001468124A00259B581988019309B201F0C3
:100C600035FC0F48784401F031FC0E482268210021
:100C70007844043401F02AFC0B4B226801359A4277
:100C8000F3D10A482900784401F020FC37BDC04662
:100C90000E2E000040000000CA2C000000000000E2
:100CA000DD2C0000E82C000077777777E62C000039
:100CB000FFF76DFF01DFFEE78021034A4905536816
:100CC0000B4353607047C04600ED00E0EFF309802E
:100CD000EC4685464046494652465B46FFB4704660
:100CE00001B46846E5460B4909680860FFF7EAFA6F
:100CF000EE46084800680068854601BC8446FFBC93
:100D00008046894692469B46684680F30988F546A8
:100D1000604700007C0000207047002070470020E2
:100D2000704770477047704710B5044B044A7B44C6
:100D30009B5800B21B68984710BDC046262D000086
:100D40005000000007B50121064B074A7B449A5822
:100D50001060064A08009B581A00019300F0FEF943
:100D600007BDC046082D0000500000004C000000E8
:100D700010B5012000F0E4F910BD10B5012000F01D
:100D80005DFA10BD10B50200012000F0ADF910BDF4
:100D900010B50200012000F011F910BD10B50100DE
:100DA000012000F04BF910BD10B5012000F07CF9D6
:100DB00010BD704770470000002802D1024B89B275
:100DC000198501207047C04600080042002806D15E
:100DD000044A137E5B07FCD5024B1B8D0B70012070
:100DE0007047C04600080042002806D1044A137E1E
:100DF000DB07FCD5024B89B2198501207047C0463C
:100E0000000800420449CB69034A002BFBD10221B0
:100E100013680B431360704700080042F8B5061EC4
:100E20003ED10420214A136A03431362204B214A16
:100E30005A805A78D209FCD110231F481F4C836076
:100E400023780232134323701D4B1E4C83622368A8
:100E500093432360E3691B4D9B07FBD41A4801F0C1
:100E600093FA1A4B0A212B60070001F0D1FA0723ED
:100E7000AA8919404B03D104C90C1943A981380030
:100E80000A2101F081FAAA89C004C30C500B400367
:100E90001843C0239B02A8816B60E3695B07FCD405
:100EA0003000FFF7AFFF0020F8BDC046000400404F
:100EB000000C004014400000004400414544004143
:100EC000300001530008004280C3C90104201040D3
:100ED00070B5040016001D00FFF7A0FF00281DD10B
:100EE0000C2363431A000E4979448B185650049A18
:100EF0005D609A60002C11D1C2210A4A89005458C1
:100F0000094B23408024E4012343535080230421D0
:100F10009B001360054A937D0B43937570BDC046DB
:100F200084F9FF1F00E100E0FF00FFFF000800421E
:100F30000449CB69034A002BFBD1022113688B4380
:100F4000136070470008004270B5174C174D237EA0
:100F50007D445B0707D5164B218D7B44C9B21A68C7
:100F60009868904717E0237E9B070CD5114B7B4474
:100F70005A689868904700280DD1237E9B070AD5B0
:100F8000237E022205E0237EDB0904D08022237E1B
:100F9000524213432376084BEB581B68002B01D0B9
:100FA000FFF746FB70BDC04600080042042B00005E
:100FB00012F9FF1FFEF8FF1F0800000010B50028FF
:100FC00002D0012818D031E0002909D001292DD103
:100FD0002024184B92B2987B204398735A8320E0C8
:100FE0001020144B92B2997B014399731A835A7B58
:100FF00002435A730F381BE0002908D0012915D18C
:1010000020240D4B987B20439873DA6109E010246B
:10101000094B997B214399739A615A7B22435A73F6
:1010200006E05A7B080022435A7301E00120404247
:1010300010BDC046002C00420030004210B5002810
:1010400002D0012810D027E0002903D0012923D1A4
:10105000134B18E01020124B997B014399731A7BB4
:1010600002431A730F3819E0002903D0012913D164
:101070000C4B08E010240B4B997B214399731A7B8E
:1010800022431A730AE02024987B204398731A7B2A
:10109000080022431A7301E00120404210BDC046FF
:1010A000002C004200300042002805D0012813D156
:1010B0000A4B0B4A5A8009E00A4B094A5A80DA7BEC
:1010C000D209FCD1074B188A80B206E0DA7BD2093C
:1010D000FCD1024B186900E000207047003000424C
:1010E0001080FFFF002C004270B505000E001400B8
:1010F000FFF7DAFF310002192800FFF75FFF70BD2C
:10110000002803D0012806D1034A00E0034A022147
:1011100013888B431380704700300042002C00423C
:10112000002803D0012806D1034A00E0034A022127
:1011300013880B431380704700300042002C00429C
:10114000002804D0012806D18022120301E0802269
:10115000D202014B1A60704700E100E073B52E4DDA
:1011600004007D44012954D12C4B2D4959805978D4
:10117000C909FCD12B48294948805878C009FCD1BD
:10118000002C02D0012C17D043E0274920000B8807
:101190009B0740D4802625483601036A3343036207
:1011A00001200B8803430B8008881F4BC007FBD42A
:1011B0000C201988814315E01D490B889B072AD410
:1011C00080261A487601036A334303620B8823435F
:1011D0000B800888164BC007FBD40C20198881436C
:1011E0000438014319801888124901406020198091
:1011F000198881431980104B2000EB580193019905
:10120000A3005A50FFF79CFF2000FFF789FF002042
:1012100001E00120404276BDF2280000000C0040B1
:101220001B4100001C410000002C00420004004053
:1012300000300042FFF8FFFF70000000002804D0DB
:10124000012806D18022120301E08022D202014B44
:10125000DA67704704E100E0002806D0012809D1D0
:10126000054A13881843108004E00121034A1388BB
:101270000B4313807047C04600300042002C0042F0
:1012800010B5184B184C997B7C441A00C9060ED532
:10129000597BC9060BD5154AA2581168002919D0E7
:1012A00010209A7B02439A731873002011E0927BFE
:1012B0000C4B92060ED55A7B92060BD50B4AA258C0
:1012C0001168002906D020209A7B02439A73187374
:1012D0001F388847064BE3581B68002B01D0FFF7E7
:1012E000A7F910BD002C0042CC27000070000000C0
:1012F0000800000010B5184B184C997B7C441A006C
:10130000C9060ED5597BC9060BD5154AA258516896
:10131000002919D010209A7B02439A731873002079
:1013200011E0927B0C4B92060ED55A7B92060BD5A0
:101330000B4AA2585168002906D020209A7B02430C
:101340009A7318731F388847064BE3581B68002BA5
:1013500001D0FFF76DF910BD0030004258270000A2
:10136000700000000800000010B5144C144B7C44C1
:10137000144AE3587A441A6080225A60002280217D
:101380009A60DA60104A86B001937A440F4B029259
:10139000E3580F480622C9000593009378440923B7
:1013A000FFF76CF90B4BE35805931880FFF718F91A
:1013B0000948784401F006F906B010BDE6260000A1
:1013C000200000000EF5FF1FFF2500002800000090
:1013D00078F5FF1F2C000000DD25000007B5054B48
:1013E000054A7B449B58C1B21800019300F0C0FA33
:1013F00007BDC04672260000200000001FB5002275
:1014000002A8064B4280064A7B449B580193002168
:10141000595E00F087F905B000BDC0464C260000BB
:101420002C0000001FB5002202A9084BCA71084A0F
:101430007B449B58CC1D019301220020185E2100A3
:1014400000F0ABFB207804B010BDC046242600009D
:101450002C00000070B5114B114A7B449C580100D0
:10146000206882689368013B9360002B0DDA9569D0
:10147000AB4207DB1368197020688268136819781B
:101480000A2907D101F0A8F806E01368197023684B
:101490009A6813680133136070BDC046FA250000D6
:1014A0004800000010B500F0F7FA80220421044B38
:1014B00012039A609A6153331A788A431A7010BDE6
:1014C0000044004170B58025064E074C2D033000C6
:1014D00000F09EFB6561300000F09AFBA5610020E2
:1014E00070BDC04640420F000044004110B500F0FE
:1014F00051FEFFF739FF10BDF7B504000E00FFF7EE
:1015000042FB3A4D3A4B7D44EB583A4A01931B88D3
:10151000AA581BB29B009D580700AB6A0192002B92
:101520001AD0EA69296A914216D0511CE961696AA8
:101530000A400192002E07D1511C05D10124380028
:10154000FFF729FB64424FE0002A0ADBD2009B1818
:10155000220003CB03C205E0002EEFD001235B4243
:1015600001936C6128001830FFF7C3FA002811D1ED
:10157000019B002B09DA03212800FEF7D9FE380071
:10158000FFF709FBFFF798FB02E03800FFF703FBCA
:10159000012429E0019B8668002B0EDB2B6AEA6997
:1015A000696AAC6A9A1A914203DB5A1C2A620B40A0
:1015B00001E001235B42DB00E41873690F2506CBD1
:1015C00006C4B388052B06D00023072173613000C1
:1015D000FEF7AEFE35893800FFF7DDFA01240E2D47
:1015E00002D82800FEF7E2FE2000FEBD4E250000D6
:1015F000000000006000000010B5036AC269446A80
:101600009A1A944201DA002009E05A1C026223402F
:10161000F9D4826ADB00D31805C905C3012010BDC7
:10162000F0B52D4F89B01E002C4B7F4401900292E3
:10163000FB5889000393CC58294BFB5803931B8814
:101640000380002C05D101253000FFF7A4FA6D427C
:101650003FE0A388032B2ED001992000FFF7CCFF99
:10166000051E0CD03000FFF796FA1E4B0125FB58E3
:101670001B689B88052B2CD1FFF71EFB29E0029BE2
:10168000002B03D13000FFF786FA22E0154B05A9A5
:10169000FF583B681A890590200018304A608B601B
:1016A000FFF72EFA3868019B4361818805394A4269
:1016B0004A41111D05E06369019A03CA03C307216A
:1016C0002000FEF735FE3000FFF765FA0125FFF731
:1016D000F3FA280009B0F0BD2A24000060000000E1
:1016E000000000004000000073B50500FFF74BFA52
:1016F000094C0A4B7C44E358060001931B882900DF
:101700002B80074BE3581868FFF776FF0400300082
:10171000FFF741FA200076BD6023000000000000C2
:101720004000000037B5104C104A7C44A258890094
:10173000030088580192002813D021221A80828841
:10174000032A0AD1426922CB22C20721FEF7F0FD0B
:101750000120074BE358186005E01900FFF74CFF24
:1017600001E0012040423EBD2A230000600000004D
:101770000800000073B5104E04000D007E44FFF712
:101780000DFA002804D029002000FFF7CBFF12E05B
:101790000A4BF35801931B881BB29D4203D12000D2
:1017A000FFF7A2FF07E0FFF7EEF90122030029008F
:1017B0002000FFF735FF76BDD822000000000000B2
:1017C000F7B504000D00FFF7E9F90F4F06007F445D
:1017D000002804D029002000FFF7A4FF12E00B4BE3
:1017E000FB5801931B881BB29D4203D12000FFF7D9
:1017F0007BFF07E0FFF7C7F9320003002900200054
:10180000FFF70EFFFEBDC04686220000000000006C
:10181000F7B50F0005000092FFF7B5F906000C4C74
:101820000C4B7C44E3580C4A01931B88A2581BB212
:101830009B009C58052120000192FEF779FD67610D
:101840003300280001220099FFF7EAFEFEBDC046E2
:10185000322200000000000060000000F7B5070021
:101860000D00FFF790F9134C134B7C44E35806002E
:1018700001930022BB5E019A9B009C58002C15D05E
:10188000A388052B02D0FFF786F90FE063692000DB
:1018900006CD06C30721FEF74BFD24893000FFF774
:1018A0007AF92000FEF782FD012001E0012040428C
:1018B000FEBDC046EA2100006000000037B50D4CB7
:1018C0000D4B7C44E35801930022835E019A9B00F8
:1018D00098588388052B0AD1436924C924C307215A
:1018E000FEF726FD0120054BE358186001E00120BA
:1018F00040423EBD92210000600000000800000050
:1019000010B50021FFF7F8FD10BD10B50121FFF75C
:10191000F3FD10BD094B10B57B4400290AD04A1EC7
:10192000114007D1064C1B591B689862D961196296
:101930005A6201E001214942080010BD3C2100002B
:1019400040000000F0B50400002090420FD0E36892
:101950006568AB420BD05F1C0E5CE760A768DB19C3
:101960009D4200D85B1B25680130EE54EDE7F0BDC9
:1019700030B54268C468030094420ED182680068A2
:10198000651E805CDD60002D02D100229A6006E0B9
:1019900001329A60944202D1F7E701204042DA68AE
:1019A000541CDC609C68A2185C68A24200D3121B25
:1019B0001B68995430BDC268002A10D08368016842
:1019C000013AC95CC260002A02D10023836004E0AE
:1019D0004268013383609342F7D0080001E00120A0
:1019E00040427047F8B5C56804000F00954200D921
:1019F0001500002D1ED0A16863685E1A236859186F
:101A0000AE420AD32A00380000F03AFD0023AE426D
:101A100001D0A3685B19A36009E03200380000F030
:101A20002FFDAA1BA260B819216800F029FDE36808
:101A30005B1BE3602800F8BD0300C068884204D245
:101A400000220100DA609A6009E09A68401AD860C2
:101A50005868521A9A60824201D912189A60080096
:101A6000704730B585B06946030031CB31C11B6882
:101A700068460B60FFF79FFF05B030BDF0B585B03D
:101A80006D460300C1CBC1C51B6868462B60FFF7DC
:101A9000A9FF05B0F0BD000010B50224274A137855
:101AA000A343137000F040FC0E221021244B254864
:101AB0009A619A690A439A614268224342609A692C
:101AC0008A439A61204B214A196A0A4080211A628E
:101AD0001A6A8A431A621A6A40398A431A621A6A6F
:101AE00022431A620822D9681142FCD00121184A07
:101AF00011705078164940B20028FADB154888600A
:101B000015484860154848805178114849B2002965
:101B1000FADB2F2199640F39D964114B1E391970E2
:101B2000104B1B7880235B00836084235B0243603F
:101B300053785BB2002BFBDB10BDC04600100040A9
:101B4000000400400040004100080040FFFCFFFF8F
:101B5000000C0040010800000106010001410000E6
:101B6000440800405008004013B500236C46019122
:101B700002B2694668466380FFF74AFE019816BDC7
:101B800013B501236C466380002302B269466846A0
:101B90000193FFF73DFE019816BD1FB5009202228A
:101BA0006C4602AB01915A80190002B218000394EE
:101BB000FFF72EFE009804B010BD1FB5009203225F
:101BC0006C4602AB01915A80190002B218000394CE
:101BD000FFF71EFE009804B010BD10B500F082F8AB
:101BE000041E03D100F020FC092307E040682369AC
:101BF0009847002806DA00F017FC0523036001204F
:101C0000404203E0606800F0A1F8002010BD000031
:101C100037B502000021684600F024F9019D07490C
:101C2000280000F0B1FB009C04490419280000F0D2
:101C3000EFFB200000F0E4FA00203EBD40420F0020
:101C400013B500220100684600F00CF900980199D4
:101C500000F0D6FA002016BD9622F0B51B4C89B0D4
:101C60007C44520000212000194E00F012FC194B58
:101C70007E44F75800210023F85EFFF775FF01232B
:101C800003930022BB5E03AD0493134B2900F3586A
:101C9000142201930593114B2000F35801930693EE
:101CA0000F4BF3580193079300F0EAFB2000290043
:101CB0001422143000F0E4FB200014222900283004
:101CC00000F0DEFB0F2009B0F0BDC046B4F0FF1FEE
:101CD000E41D00002C00000064000000540000001F
:101CE0006C000000020000200E2A05D81423534384
:101CF0001800024B7B4418187047C04620F0FF1FA5
:101D0000F7B5150007000E000024142201930E4BB6
:101D10007B4411006143C958002909D001340F2CBC
:101D2000F7D100F081FB17230360012040420AE055
:101D30002000FFF7D7FF01230360019B4760866007
:101D4000C56003612000FEBD04F0FF1F10B5FFF762
:101D5000C9FF002803D01422002100F09AFB10BD17
:101D6000F0B500250600304885B0784400F02AFC24
:101D7000009502AC2000FFF7C8FD21880BB2212B93
:101D80002FD06288012A1CD0002A02D0022A08D053
:101D900020E0009B002B02D1636000911DE0102326
:101DA00019E06A460021525E9A4208D016232100AB
:101DB0005B42200063600025FFF750FD11E065687D
:101DC0000FE06A460021525E9A4203D10025656009
:101DD000009502E016235B42636021002000FFF7BC
:101DE0003DFDF368002BC4D0002DC2D0FEF7CBFE22
:101DF000F3682F6801909F4200DD1F003A00696878
:101E00003000FFF7EFFD6B462F6000271B88210095
:101E10002000238065606780FFF720FD0198FEF7B2
:101E2000BAFE3D00A5E7C046371C000010B5FFF71D
:101E300097FF002010BD000082B013B5C9180593AC
:101E4000069BD218054B9A4202D9054B0131D21894
:101E50000160426016BC08BC02B0184740420F0047
:101E6000C0BDF0FF016042607047000082B013B552
:101E7000069C0593944201D8C91A03E00139C91A96
:101E8000044BD218121B0160426016BC08BC02B0A1
:101E90001847C04640420F001FB50400012094427D
:101EA00007D307D1994203D3C81A411E884101E0E4
:101EB0000120404204B010BD10B503690100436029
:101EC00002487844FEF71CFE012010BD82EFFF1F80
:101ED000104A11497A44136810B55B1813608022C8
:101EE0000E4852017844C36801619B18C360FFF734
:101EF000E3FF0B4878440468002C09D0094BE268E2
:101F00007B44DB689A4203D1FEF7F3FD2000EEE745
:101F100010BDC04674EFFF1F000024F470EFFF1FD8
:101F200058EFFF1F54EFFF1F10B52023C05EFEF7D0
:101F300057FB10BD10B5C069FEF77AFD10BD07B59F
:101F40006B46028B5A80C26901922022815E6846EC
:101F5000FFF7E8FB07BD0000194B10B57B441B6879
:101F6000002B2AD0174A7A441068421C07D05A68BE
:101F7000154B7B441B689A421FD0FEF7D7FC134BCE
:101F8000134A7B441B687A445B681360114A7A44A5
:101F900014681C19FEF798FC23000F4A143B1B1A07
:101FA000934201D90A3004000C49002279442000F0
:101FB000FEF7B6FC0A4B7B441860002010BDC046FB
:101FC000E8EEFF1FA2E0FF1FDEEEFF1FC2EEFF1FC5
:101FD000CAEEFF1FBAEEFF1F000024F43500000018
:101FE00052E0FF1F01220C4B10B57B441A600B48D6
:101FF0000B4B023A7B4478441A60FEF77AFD0028C6
:1020000006D10022074B7B441A60FFF7A5FF10BDE5
:1020100043699847F5E7C04656EEFF1F4EEEFF1F97
:1020200014E0FF1F3AEEFF1F026810B513051B0DE9
:10203000D11A0C4A446853431B1901609C4205D9CC
:10204000094A9B18802252018A180260074A93426B
:1020500006D98021044A49019B180268521802607F
:10206000436010BD40420F000000DC0B000024F470
:1020700070B50500FEF728FC094B0A497B441B6834
:10208000C41A200000F080F9074B06497B44DB6846
:1020900018182860200000F0BBF9696070BDC046C8
:1020A000CCEDFF1F40420F00C8EDFF1F30B504000C
:1020B00087B004AD2800FFF7DBFF23690499009384
:1020C0006A6802AD2800E368FFF7B6FE230020002F
:1020D0000C3306CD06C30C30FFF7A6FFE368002BD8
:1020E00004D123690A2B01D90A3B2361FEF74BFD7A
:1020F000114AE3687A44D2680500934207D00F483A
:10210000636021007844FEF7FBFC00240DE0200012
:10211000FFF7D2FE0024A04207D0094B7B441B6886
:10212000A34202D1FFF718FF04002800FEF733FD99
:10213000200007B030BDC04660EDFF1F48EDFF1F17
:1021400024EDFF1F37B504006846FFF791FF009BA1
:102150002360019B636037BD37B504006846FFF715
:1021600087FF009D3C21280000F052F928002160E3
:102170003C2100F009F93C2100F04AF96160E121BD
:102180002800090100F000F9182100F041F9A160D0
:1021900037BD000010B5FEF7F6FC002304000A4A24
:1021A0000A487A4478441360094AC361C360094B02
:1021B0007A4442610361FFF77FFEFFF7CDFE200006
:1021C000FEF7E9FC10BDC046A6ECFF1FB0ECFF1FF8
:1021D0001DFDFFFF000024F437B50192074A00916E
:1021E0007A4442610022C261020069460C3230C961
:1021F00030C20384FFF75AFF3EBDC04645FDFFFFD6
:1022000070B58EB06E46041E0090019105D1081E77
:10221000062802D8FEF71AFB14E0002303AD2800BD
:1022200003930493FEF7D4FB084B05A87B4443615A
:10223000C56108AB06CE06C3FFF738FF04002800CF
:10224000FEF7C6FB20000EB070BDC04605FDFFFFC7
:1022500013B5020000216846FFF704FE00980199BB
:10226000FFF7CEFF16BD000070B50400FEF78BFC33
:102270000500084821007844FEF72EFC064821009E
:102280007844FEF729FCFFF767FE2800FEF783FC81
:1022900070BDC046CEEBFF1FCCEBFF1F37B50192E0
:1022A00006AA128800910283079A6946C261020059
:1022B000044C0C327C44446130C930C20384FFF7C3
:1022C000F5FE37BD87FCFFFFF0B5050093B0134E58
:1022D000134B059207AC134A6680646004917B44FB
:1022E0009B5809AF03931B88059A1BB238000194D1
:1022F0000096FFF7D3FF2800FFF707FB6B88B34278
:1023000002D16B68A34204D03800FFF7ADFF012073
:1023100001E00120404213B0F0BDC046393000005A
:102320007617000000000000144A154B116AF0B542
:102330000B40C02109040B4380211362D369C905F6
:102340001B021B0A0B43C024D36103270022FF2674
:10235000A40093080B499B005B181100350039401D
:10236000C9008D4018590132A84384464020884056
:102370006146014319511C2AEBD1F0BD00ED00E08C
:10238000FFFF00FF00E100E0002934D0012300221C
:1023900010B488422CD301242407A14204D28142E4
:1023A00002D209011B01F8E7E400A14204D28142F4
:1023B00002D249005B00F8E7884201D3401A1A4371
:1023C0004C08A04202D3001B5C0822438C08A042A8
:1023D00002D3001B9C082243CC08A04202D3001B5E
:1023E000DC082243002803D01B0901D00909E3E7D8
:1023F000101C10BC7047002801D00020C04307B457
:10240000024802A14018029003BDC0461900000016
:102410000029F0D003B5FFF7B9FF0EBC4243891A7B
:102420001847C0467047C046014B18687047C04601
:10243000700000200E4B70B500251E000D4CE41AF4
:10244000A410A54204D0AB00F35898470135F8E733
:10245000FDF742FE084B00251E00084CE41AA410AC
:10246000A54204D0AB00F35898470135F8E770BD9A
:10247000583A0000583A0000583A0000583A000014
:10248000002310B59A4203D0CC5CC4540133F9E761
:1024900010BD03008218934202D019700133FAE78D
:1024A00070470EB417B5041E04D08369002B01D108
:1024B00000F07CFA06AB059AA1682000019300F0B9
:1024C00065FC1EBC08BC03B0184700000FB40B4BE2
:1024D00013B51C68002C05D0A369002B02D1200085
:1024E00000F064FA05AB049AA1682000019300F0A3
:1024F0004DFC16BC08BC04B01847C0467000002054
:1025000070B505000E00002804D08369002B01D1AE
:1025100000F04CFAAC68A3891B0702D52369002B95
:1025200019D12100280000F0B9F8002813D00120AB
:10253000404245E03178002B1BDAA269934211DA60
:102540002200280000F048F8013042424241D0B257
:102550000028ECD10136A3683278013BA360002A41
:10256000E8D10CE023681970236819780A2903D18F
:10257000E6E723681970236801332360EAE7002B3C
:1025800017DAA269934208DB0A23226813702368D2
:1025900019780A2911D1220001E022000A2128001D
:1025A00000F01AF8013042424241D0B2002806D071
:1025B000BDE70A23226813702368013323600A20D1
:1025C00070BD000010B5034B01001868FFF798FFBD
:1025D00010BDC04670000020F8B505000F001400C3
:1025E000002804D08369002B01D100F0DFF9234BD0
:1025F0009C4201D16C6808E0214B9C4201D1AC683F
:1026000003E0204B9C4200D1EC68A369A360A3893E
:102610001B070AD52369002B07D023682269FEB265
:10262000981A636998420FDB08E02100280000F047
:1026300035F80028F1D0012040421DE0210028009B
:1026400000F026F90028F6D1A3680130013BA36011
:1026500023685A1C22601F706369984205D0A389C1
:102660003000DB0708D50A2E06D12100280000F033
:102670000FF90028DFD13000F8BDC046C439000092
:10268000E4390000043A000010B5034B0A000100D1
:102690001868FFF7A1FF10BD70000020354B70B522
:1026A0001D6806000C00002D05D0AB69002B02D17F
:1026B000280000F07BF9304B9C4201D16C6808E0A7
:1026C0002E4B9C4201D1AC6803E02D4B9C4200D1C3
:1026D000EC68A3899AB2110723D4D10607D4092242
:1026E0000120326037321343A381404240E0530758
:1026F00013D5616B002908D023004433994202D0DE
:10270000300000F071FA002363632422A38993430D
:10271000A38100236360236923600822A3891343F4
:10272000A3812369002B0BD1A023A2899B00134016
:1027300080229200934203D02100300000F002FA80
:102740000123A289134005D00023A36063695B4283
:10275000A36103E0910700D46369A36000202369AB
:10276000834205D1130603D540231A43A2810138C1
:1027700070BDC04670000020C4390000E43900007C
:10278000043A0000F7B58A8905000C0013075AD4F3
:102790004B68002B02DC0B6C002B19DDE76A002F65
:1027A00016D000232E682B6080235B011A4001D0D5
:1027B000606D14E00123216A2800B847431C0ED144
:1027C0002B68002B0BD01D2B01D0162B02D12E60B5
:1027D00000205AE04022A3891343A38155E0A38936
:1027E0005B0706D56368C01A636B002B01D0236CAE
:1027F000C01A00230200216A2800E76AB847A389AB
:10280000421C06D129681D293AD8204ACA40D2075D
:1028100036D50022626022692260DB0405D5431CA4
:1028200002D12B68002B00D16065616B2E600029FE
:10283000CED023004433994202D0280000F0D4F9CE
:102840000020606321E00F69002FC1D00B680F608A
:10285000DB1B01930023920700D14B69A36003E0C7
:10286000019B3F181B1A0193019B002BB0DD019BBC
:102870003A00216A2800A66AB0470028F0DCA38944
:10288000402201201343A3814042FEBD01004020AD
:102890000B6970B505000C00002B01D100201CE075
:1028A000002804D08369002B01D100F07FF80B4B86
:1028B0009C4201D16C6808E0094B9C4201D1AC6894
:1028C00003E0084B9C4200D1EC680C22A35E002B75
:1028D000E4D021002800FFF755FF70BDC439000087
:1028E000E4390000043A000010B5011E05D1054B83
:1028F0000549186800F004F903E0044B1868FFF775
:10290000C7FF10BDC03900009128000070000020F2
:102910000020704710B5024900F0F2F810BDC04623
:1029200091280000002310B5040003604360836019
:1029300081814366C281036143618361190008227A
:102940005C30FFF7A6FD054B24626362044BA36273
:10295000044BE362044B236310BDC046FD3200000C
:1029600029330000613300008D33000000207047E0
:1029700070B568254B1E5D430E002900743100F0D0
:1029800079F9041E08D000212A00016046600C304D
:10299000A0606832FFF77DFD200070BD10B5024BCE
:1029A0001868FFF7B7FF10BDC0390000836913B581
:1029B0000400002B28D18364C3640365134B144ABD
:1029C0001B6882620193984201D101238361200038
:1029D00000F020F86060200000F01CF8A0602000EB
:1029E00000F018F80022E06004216068FFF79AFF09
:1029F00001220921A068FFF795FF02221221E06859
:102A0000FFF790FF0123A36113BDC046C03900004A
:102A100015290000F8B51D4B06001D68AB69002B99
:102A200002D12800FFF7C2FF4835AC686B68013B54
:102A300005D40C22A75E002F10D06834F7E72B686E
:102A4000002B01D02D68F0E704213000FFF790FF44
:102A500028600028F6D10C23336016E00123200003
:102A60005B42E3810233A38167662760A7606760EA
:102A700027616761A7615C3008223900FFF709FD13
:102A800020006763A763A764E764F8BDC03900004E
:102A9000704770477047704710B5034B034918687B
:102AA00000F012F810BDC046700000206D29000033
:102AB00010B5034B0349186800F006F810BDC04676
:102AC0007000002011290000F7B5483004000026EE
:102AD0000191002C12D0A5686768013F0CD4AB8926
:102AE000012B07D90E22AB5E013303D02800019BD6
:102AF000984706436835F0E72468EAE73000FEBDF2
:102B0000F7B504000700002601914834002C16D0C8
:102B10006368A5680093009B013B00930DD4AB89CB
:102B2000012B08D90E22AB5E013304D029003800F6
:102B3000019B984706436835EDE72468E6E73000D7
:102B4000FEBD0000F0B58B8991B006000C009B071C
:102B500026D40E23C95E002904DA8023A5891D40EE
:102B600010D10CE001AAFDF74CFB0028F5DBF023A7
:102B7000029D1B021D401A4BED186B425D418027E0
:102B8000FF0001E0002540273900300000F072F816
:102B900000280CD1A3899A051FD402221343A381D4
:102BA00023004733236023610123636115E0802202
:102BB0000C4BB362A38920601343A381206167613A
:102BC000002D0AD00E23E15E3000FDF724FB002823
:102BD00003D00122A3891343A38111B0F0BDC046E5
:102BE00000E0FFFF1529000030B500293ED0043970
:102BF0000B68002B00DAC9181D4A13681400002B5B
:102C000002D14B60116031E08B420DD90A688818FF
:102C1000834203D118685B6882180A604B602160A8
:102C200024E08A4203D813005A68002AF9D11D68AB
:102C30005C198C420BD109686918581819608242D6
:102C400014D110685268411819605A600EE08C4225
:102C500002D90C23036009E008680C18A24203D1D2
:102C600014685268201808604A60596030BDC04638
:102C7000800E0020032370B5CD1C9D43083506004F
:102C80000C2D01D20C2505E0002D03DA0C230020C9
:102C9000336040E0A942F9D81F4B1C681A0021009C
:102CA000002913D00B685B1B0DD40B2B02D90B60D2
:102CB000CC181EE08C4202D1636813601AE04B68A6
:102CC00063600C0016E00C004968E9E7134C2368C8
:102CD000002B03D13000FDF72BFA206029003000D3
:102CE000FDF726FA431CD1D00323C41C9C43A04209
:102CF0000AD12560200007220B30231D9043C31A00
:102D000009D05A42E25006E0211A3000FDF710FACD
:102D1000431CEED1BAE770BD800E00207C0E00206F
:102D2000936810B5013B9360002B05DA9469A342C8
:102D300008DBCBB20A2B05D01368581C1060197041
:102D4000C8B201E0FFF748FC10BDF8B506000F005F
:102D50001400D518AC4208D021783A003000FFF7B3
:102D6000DFFF0134431CF5D100E00020F8BD93687B
:102D700010B51400002B02D15360180004E000F0DD
:102D80000BFB0023A360636010BD0000F0B59FB093
:102D900006000F0002920593002804D08369002BDF
:102DA00001D1FFF703FE7F4B9F4201D1776808E016
:102DB0007D4B9F4201D1B76803E07C4B9F4200D11D
:102DC000F768BB891B070AD53B69002B07D0002396
:102DD00006AD6B6120336B761033AB763DE0390086
:102DE0003000FFF75BFC0028F1D001204042D6E024
:102DF000059A111D12680591002A00DA7FE00992F8
:102E0000013423782E2B00D18DE0217803226848ED
:102E100000F02AFC002807D0654B2A68C01A40231E
:102E2000834013432B6001342178631C06226148E0
:102E30000293297600F018FC002800D19DE05E4B3B
:102E4000002B00D090E00722059B07339343083303
:102E500005936B69039A9B186B61029C2378002B86
:102E600004D1029BE31A049312D003E0252BF8D07F
:102E70000134F3E7049B029A39003000FFF765FF45
:102E8000431C00D186E06A69049B944663446B61ED
:102E90002378002B7ED00122002352426A6002A9CF
:102EA0005432521801342B60EB60AB601370AB6589
:102EB00021780522414800F0D7FB002808D03F4B7D
:102EC0002A68C01A0123834013432B600134EFE7C3
:102ED0002B68DA0604D55322202102A8121811709B
:102EE0001A0704D553222B2102A812181170227838
:102EF0002A2A00D17CE7099B00200A2105E05242E2
:102F0000EA60022213432B607AE72278303A092ADA
:102F100004D84B4301349B180120F6E7002800D168
:102F20006FE709936DE763782A2B0AD1059B02347A
:102F30001A1D1B680592002B01DA01235B420793DF
:102F400063E700230A201A0001346B6021783039CE
:102F5000092904D84243013452180123F6E7002B13
:102F600000D152E7079250E705AB00933A00144BAB
:102F70002900300000E000BF07E005AB00933A00F5
:102F80000F4B2900300000F097F80390039B0133AA
:102F900000D05EE7BB895B0600D526E70B981FB023
:102FA000F0BDC046C4390000E4390000043A000016
:102FB0002A3A00002E3A000000000000243A0000E7
:102FC0004B2D000010B513000A00010002480068F4
:102FD000FFF7DCFE10BDC04670000020F7B51700FB
:102FE00001938A680B6900900C00934200DA130089
:102FF00022003B6043321278002A01D001333B604B
:1030000023689B0602D53B6802333B600625236894
:103010001D401ED0230043331B785A1E9341226863
:1030200092061CD53020E1184331087021005A1C4B
:1030300045310978A2184332023311700FE02200A3
:103040000123193201990098089EB047431C0ED005
:103050000135E3683A689B1A9D42F0DBDAE722000B
:10306000019943320098089DA847431C02D10120D2
:10307000404220E006232068E1683A6803400025CA
:10308000042B03D18D1AEB43DB171D40A368226983
:10309000934201DD9B1AED180027BD420AD02200A1
:1030A00001231A3201990098089EB047431CDED0D4
:1030B0000137F2E70020FEBDF0B58BB006920A00A2
:1030C00043320793059004920A7E0C00109B6E2AEF
:1030D00000D1ABE011D8632A22D009D8002A00D150
:1030E000B5E0582A00D0C5E045310A70814A4FE06A
:1030F000642A1DD0692A1BD0BCE0732A00D1AAE043
:1031000009D86F2A29D0702A00D0B3E0202209689C
:103110000A43226037E0752A1FD0782A33D0A9E00D
:103120000E001A684236111D196013683370A4E04E
:1031300021681A68080606D4490604D5111D1960CD
:103140000023D55E02E0111D19601568002D3BDAE1
:103150002D23049A6D42137036E021681A68080620
:1031600006D4490604D51568111D1960ADB202E0F8
:10317000111D196015685F4B227E039308276F2A83
:103180001DD00A271BE022007821453211705A4ACF
:1031900019680392081D226818600D68100602D491
:1031A000500600D5ADB2D30702D520231A432260C2
:1031B0001027002D03D1202322689A432260230088
:1031C000002243331A7002E00A274A4B03936368D4
:1031D000A360002B09DB0422216891432160002DAC
:1031E00005D1049E002B11D07BE0002D79D0049EE8
:1031F00028003900FFF70CF9039B013E5B5C2800B7
:1032000033703900FFF7C0F8051EF1D1082F09D13E
:103210002368DB0706D563682269934202DC30230A
:10322000013E3370049B9B1B23612BE009681A68E5
:10323000080607D4490605D5111D19601368A28A2E
:103240001A8004E0111D1960136862691A60002376
:10325000049E236116E01A68111D1960166800218A
:103260006268300000F000FA002801D0801B606026
:10327000636803E026004236327001232361002395
:10328000049A1370079B09AA00932100069B0598D6
:10329000FFF7A4FE431C02D10120404227E023692E
:1032A000320006990598079DA847431CF4D023686F
:1032B00000259B070FD4099BE068984217DA180095
:1032C00015E022000123193206990598079EB047A0
:1032D000431CE1D00135E368099A9B1A9D42F0DB5B
:1032E000E9E72600039B42361B7833708EE70BB06C
:1032F000F0BDC046353A0000463A000070B50C00FB
:103300000E25495FFCF75EFF002803DB636D1B1889
:10331000636503E0A289024B1340A38170BDC046E0
:10332000FFEFFFFF00207047F8B51F008B890500F5
:103330000C001600DB0505D50E23C95E0022022312
:10334000FCF75AFFA289054B28001340A3813200E5
:103350000E23E15E3B00FCF73CFFF8BDFFEFFFFFF3
:1033600070B50C000E25495FFCF746FFA389421C8F
:1033700003D1054A1340A38104E080225201134384
:10338000A381606570BDC046FFEFFFFF10B50E233F
:10339000C95EFCF72CFF10BDF0B5936887B00290B2
:1033A0000C001700002B01D1002054E18B891B0772
:1033B0000CD50B69002B09D002253B68A28901932B
:1033C000154029D0002300931D001BE02100029826
:1033D000FFF764F90028EFD03BE1A04A2B1E93428F
:1033E00000D91300009A216A0298A66AB047002803
:1033F00000DC2AE1009B2D1A1B180093BB68181AE9
:10340000B860D1D0002DE8D1019B1B680093019BCF
:103410005D6808330193F5E70123134003D0059558
:1034200000950395D2E003930093009B002B09D1F4
:10343000019B1B680393019B5B680093019B08330E
:103440000193F2E78023A2899B00A5681A4255D018
:10345000009BAB4244D39023DB001A423DD00326AD
:103460002169236800985B1A049363695E43F30F34
:103470009E19049B761001331B18B34200D91E001D
:10348000530510D531000298FFF7F4FB051E18D044
:10349000049A2169FEF7F4FFA289714B1340802240
:1034A0001343A38111E03200029800F0FDF8051EDD
:1034B0000BD121690298FFF797FB8022A3899343E0
:1034C000A3810C23029A1360BFE0049B2561ED18D1
:1034D00025606661009DF61AA660009BAB4200D293
:1034E000009D2A000399206800F0C9F8A3685B1BBF
:1034F000A36023685D192560009D2FE02068236983
:10350000984203D86669009BB34216D2009B9D4245
:1035100000D91D002A00039900F0B1F8A3682268C1
:103520005B1B5219A3602260002B17D12100029867
:10353000FFF7AEF9002811D087E00098494B984278
:1035400000D91800310000F0E1F83300A56A4343C8
:10355000039A216A0298A847051E76DD039B5B1932
:103560000393009B5B1B0093BB685D1BBD6000D099
:103570005BE719E7059B002B37D0039B04959D4221
:1035800000D9049320682269636990423DD9A268FA
:103590009E18049AB24238DD0099320000F06FF8AC
:1035A000236821009B1923600298FFF771F9002816
:1035B0004BD1AD1B41D0009B9B190093039B9B1BE0
:1035C0000393BB689E1BBE6000D1EDE6039B002BFE
:1035D000D0D1019B1B680093019B5B680393019B07
:1035E0000833019300230593F0E7039A0A2100981A
:1035F00000F03AF8002803D0009B0130C51A01E022
:10360000039B5D1C01230593B7E7049A9A4207DBED
:10361000A66A009A216A0298B047061EC9DC14E027
:10362000049A009900F02BF8049AA36816009B1ADC
:10363000A36023689B182360BBE721000298FFF773
:1036400027F9002801D10595B5E74022A389134346
:10365000A3810120404207B0F0BDC04600FCFF7FBF
:103660007FFBFFFFFFFFFF7FC9B28218904204D0AB
:1036700003788B4202D00130F8E70020704710B584
:10368000884202D98B18984201D3002305E09B1A87
:10369000013A08D3995C8154FAE7934203D0CC5C99
:1036A000C4540133F9E710BDF8B506000C0015004D
:1036B000002904D11100FFF7DDFA040018E0002A08
:1036C00003D1FFF791FA2C0012E000F013F88542C5
:1036D0000ED929003000FFF7CDFA071E07D02100D0
:1036E0002A00FEF7CDFE21003000FFF77DFA3C00F6
:1036F0002000F8BD0B1F1A68101F002A04DA891871
:1037000004390B68D018043870470000002941D0F4
:1037100010B4041C4C40A44601230022002900D50B
:103720004942002800D5404288422CD30124240776
:10373000A14204D2814202D209011B01F8E7E40050
:10374000A14204D2814202D249005B00F8E78842DC
:1037500001D3401A1A434C08A04202D3001B5C0854
:1037600022438C08A04202D3001B9C082243CC08B1
:10377000A04202D3001BDC082243002803D01B090F
:1037800001D00909E3E7101C6446002C00D5404233
:1037900010BC7047002806D003DB0020C04340085F
:1037A00001E08020000607B4024802A14018029000
:1037B00003BDC04671ECFFFF0029EBD003B5FFF756
:1037C000A7FF0EBC4243891A1847C0462321206533
:1037D0007869742025693A20726573657474696E1E
:1037E000670A00323031342E31322D313832352DE6
:1037F000673537313231642D6C6F63616C686F737C
:10380000742D776970006B65726E656C5F696E69A7
:103810007428293A20546869732069732052494FEB
:103820005421202856657273696F6E3A20257329DA
:103830000A006B65726E656C5F696E697428293A5F
:10384000206572726F72206372656174696E6720A1
:1038500069646C65207461736B2E0A006B65726E0F
:10386000656C5F696E697428293A206572726F729F
:10387000206372656174696E67206D61696E207482
:1038800061736B2E0A006B65726E656C5F696E69A1
:103890007428293A206A756D70696E6720696E74A4
:1038A0006F206669727374207461736B2E2E2E0AFA
:1038B0000069646C65006D61696E004E6F20687709
:1038C00074696D6572206C6566742E006C69666F34
:1038D0005F696E736572743A206F7665727772698C
:1038E00074696E672061727261795B25695D203D44
:1038F0003D20256920776974682025690A0A0A092C
:1039000009546865206C69666F2069732062726F64
:103910006B656E206E6F772E0A0A0A007072696EF0
:1039200074696E67207468652063757272656E7461
:1039300020737461636B206F6620746872656164C4
:103940002025690A002020616464726573733A203F
:103950002020202020646174613A0A002020307801
:10396000253038783A2020203078253038780A0001
:1039700063757272656E7420737461636B20736912
:103980007A653A20256920627974650A007561724A
:1039900074300075617274305F696E697428292013
:1039A0005B4F4B5D00554152543020746872656125
:1039B0006420737461727465642E0043000000001B
:1039C00010000020000000000000000000000000C7
:1039D00000000000000000000000000000000000E7
:1039E00000000000000000000000000000000000D7
:1039F00000000000000000000000000000000000C7
:103A000000000000000000000000000000000000B6
:103A100000000000000000000000000000000000A6
:103A200000000000232D302B2000686C4C006566E0
:103A300067454647003031323334353637383941FF
:103A40004243444546003031323334353637383915
:083A5000616263646566000019
:103A580078000020E903000074000020D83A000034
:103A6800881000208400002074000020000000203E
:103A780008090020000000202D1E000084080020F6
:103A8800B100000004000020800000204C08002045
:103A98007C000020840E002070000020290D00000A
:103AA8006C080020BB1B0000008000207400002070
:103AB800C40000209B1B000008000020811B0000A0
:043AC8007C08002056
:0C3ACC00000000000000000000000000EE
:103AD8008C100020B1380000B6380000FFFFFFFF4F
:103AE80000000000C4390000E4390000043A000076
:103AF80000000000000000000000000000000000BE
:103B0800BB390000000000000000000000000000B9
:103B1800000000000000000000000000000000009D
:103B2800000000000000000000000000000000008D
:103B3800000000000000000000000000000000007D
:043B48001000002049
:00000001FF
