:100000008810002001020000510200005D02000083
:100010005502000049020000FB0100000000000042
:10002000000000000000000000000000690B00005C
:100030005902000000000000490B00004D020000C2
:100040004D0200004D0200004D0200004D02000074
:100050004D0200004D0200004D0200004D02000064
:100060004D020000A50D00004D0200004D020000F1
:100070004D0200004D0200004D0200004D02000044
:100080004D0200004D020000BD10000025110000CF
:100090004D0200004D0200004D0200004D02000024
:1000A0004D0200004D0200004D0200004D02000014
:1000B000054B10B500229B5E002B04D0080001F018
:1000C00091F801F097F810BD8408002007B50020D2
:1000D000E12100900300024A490200F029FE07BD19
:1000E000B100000070470000010010B5054802F0A3
:1000F00041F8BFF34F8F044A044BDA60BFF34F8FD0
:10010000C046FDE7743400000400FA0500ED00E08D
:1001100070B50D00060000F086FC0E4B1C681A003E
:100120006319002D05DD0C49994209D39C420CD975
:1001300006E0002D09D00949994201D89C4204D219
:100140000C2301243360644200E0136000F073FC70
:10015000200070BD000000200080002088100020DA
:10016000014B188800B27047780000200323036019
:100170000120404270471323036001204042704732
:1001800010B5140001F044F82070012010BD70B5C6
:100190001D001400D618B44205D02178002000F0CC
:1001A00053FD0134F7E7280070BD132303600120DD
:1001B00040427047132303600120404270471323DD
:1001C0000360012040427047132303600120404236
:1001D000704700230222036018008A42584170478A
:1001E0001323036001204042704710B501F070FFF7
:1001F000032303600120404210BDC046FDE700001C
:10020000002370B50B480C490C4C1A188A4203D2D3
:10021000E55804331560F8E70021094B094A934279
:1002200001D202C3FBE701F025F801F057FF00F00F
:10023000E1F870BD000000207400002000370000CD
:1002400074000020840E0020C046FDE7C046FDE794
:10025000C046FDE7C046FDE7C046FDE7C046FDE7F6
:1002600070B500240E4B0F4E1C600F4B356818689C
:1002700000F0E5FA0D4B8000C35820000C3B9D4276
:100280000DD0A54204D0AA88062A01D10132AA8045
:10029000062201209A80D988054A3360118070BDFA
:1002A000740000207C000020480100208400002011
:1002B0007800002070B504000D008388052910D94E
:1002C000052B24D821000089124B800018180C310E
:1002D00000F05AF8012321890F4A8B4011680B4323
:1002E00014E0052B13D9210000890A4E80000C313F
:1002F000301800F05FF821898B009B59002B06D144
:1003000001338B40044A116899430B001360A580A8
:1003100070BDC046840000204801002010B5094B84
:100320001B689A88052A02D91B89834209D900F0E3
:1003300085FB002803D00122034B1A6001E000F086
:10034000F9FB10BD7C0000207400002070B5002473
:1003500000F069FB084B094A1B88094D1BB29B0042
:100360009C50084A210013682868013B1360FFF77E
:10037000A1FF2C6000F0DAFB78000020C400002010
:100380007C000020800000200368002B0ED00B6052
:1003900003685B684B6003685B68196003685960B9
:1003A00003685A68934204D1596002E00160096011
:1003B000496070470B68994207D04A6813600B6820
:1003C0005A600268914202D100E000230360704746
:1003D00010B500F073FF00F05DFF002010BD0000BD
:1003E00010B5034B01201B6800F0D5FBF9E7C046B0
:1003F0004C0800201FB500F016FB1849184801F002
:10040000B9FE00F0B1F9174B80211B680F2202934F
:1004100000230193144B4900009314480C2300F06F
:10042000A9F8002802DA124801F0A4FE114BC021FD
:100430001B6807220293002301930F4BC90000930E
:100440000E480C2300F096F8002802DA0C4801F060
:1004500091FE0C4801F08EFE00F068FB8B3400002A
:10046000B034000004000020E10300004C01002033
:10047000DC34000008000020D10300004C02002002
:100480000635000030350000431E9BB200221F2BB2
:1004900002D8024B8000C25810007047C4000020F0
:1004A00010B5FFF7F1FF002802D0808880B201E08C
:1004B0000120404210BD10B5FFF7E6FF002800D034
:1004C000006B10BD10B500F0B9FA00280CD100F097
:1004D000AAFA0400054B01211868FFF7EBFE200083
:1004E00000F0A9FA00F026FB10BDC0467C000020F9
:1004F00070B5040000F097FA0D4BA400E558060013
:10050000002D0ED0AC88012C0BD106212800FFF75E
:10051000D1FE300000F08FFA2889FFF7FFFE20009F
:1005200004E0300000F087FA0120404270BDC04670
:10053000C400002010B500F076FA084B1B689A88BA
:10054000052A05D91B89064A9B00995809689950C4
:1005500000F071FA00F0EEFA10BDC0467C000020F9
:100560008400002003001A689A4201D10433FAE79C
:10057000181A7047F0B587B00600029105920393F0
:100580000F2A2BD803230340191E029B04D00422F8
:10059000531A029AC618D31A0322383B9343049382
:1005A000F418039B1B0705D53300A34203D21B603D
:1005B0000433FAE7367000F036FA01230700284AC0
:1005C00099B2019199005558002D09D00133212B82
:1005D000F6D1380000F02FFA22483DE022483BE0F7
:1005E0006B469B888C500C983200E3800D99049BDD
:1005F00000F028FA029BE66263630E9B01212363ED
:100600006B469E8A0123194A5B426362136820602D
:1006100001331360039B2681A580E5602561656138
:10062000A561E5612562A5620B4203D02000FFF7BA
:1006300041FE0DE007212000FFF73CFE039B5B0716
:1006400006D4380000F0F7F93000FFF767FE02E04B
:10065000380000F0F0F9019800B207B0F0BDC046D4
:10066000C400002075FF0000EAFF000080000020A9
:1006700010B504000100074800F0B2F9064AE40092
:100680001368013B1360054B1A195068E3589847EB
:1006900010BDC046500800204C0800205C08002017
:1006A00010B500F01BF910BDF7B50F0000920193D3
:1006B000060000F0B8F90500124800F0A7F90400A0
:1006C000431C06D1280000F0B6F90F4801F052FD96
:1006D00016E00E4AC3009F50D318009A01B25A6028
:1006E000019B3000002B02D000F082FA01E000F004
:1006F00079FA074A280013680133136000F09BF968
:100700002000FEBD50080020653500005C08002078
:100710004C08002070B5040000F076FA0419051E9C
:10072000A54203D900F070FA8542FBD300F06CFAC1
:100730008442FBD870BD000010B50100084800F0ED
:1007400039FA084C0221200000F03FF92000002176
:1007500000F046F90121200000F042F910BDC0462A
:10076000710600005008002010B50248FFF7E4FFB2
:1007700010BDC046006CDC0210B5034800F020F943
:100780004342584110BDC0465008002010B500F04B
:100790003BFA10BD10B50023FFF786FF10BD000027
:1007A00013B5041E062C12D900F048F900280ED10A
:1007B00000900190684600F067F8A01E6A4608495C
:1007C000FFF7E8FF431C06D1684600F087F82000D9
:1007D000FFF7A0FF02E0684600F056F813BDC046E0
:1007E000A106000010B50123FFF75EFF10BD000059
:1007F00070B5040000F017F9050020B200F0FEF912
:100800002100084800F0ECF80022074BE400E25019
:10081000064A28001368013B136000F00CF9012020
:1008200070BDC046500800205C0800204C08002025
:100830000023400801D00133FBE718007047002374
:100840000122104202D140080133FAE71800704734
:1008500003000020002B03D05A1E13400130F9E79B
:10086000704710B504002168002907D1012220003B
:1008700000F070F80028F6D0012000E0002010BD44
:1008800010B5FFF7EEFF10BDF0B585B00400FFF71F
:10089000E8FF00281ED100F0C6F805002000FFF791
:1008A000E0FF061E03D0280000F0C5F812E00A4F52
:1008B00002213868FFF7FEFC3B68201D1A8901A958
:1008C00002920393019600F06BF8280000F0B3F851
:1008D00000F030F905B0F0BD7C00002070B50400D8
:1008E00000F0A1F823680500002B0ED0201D00F0B9
:1008F00050F8002808D0846807212000FFF7DAFCB0
:100900002089FFF70BFD00E02060280000F093F83D
:1009100070BD000070B5040000F085F82368050084
:10092000002B0AD0201D00F034F8002804D0072145
:100930008068FFF7BFFC00E02060054B01211868CC
:10094000FFF7B8FC280000F076F800F0F3F870BD6F
:100950007C00002070B504000E00150000F063F864
:100960002368B34203D000F066F8002003E025605E
:1009700000F061F8012070BD0368002B08D08B42A5
:1009800004D10B68036000230B6001E01800F3E75B
:1009900070470368002B01D01A6802601800704786
:1009A0000368002B09D05A6894464A68944502D9D6
:1009B0000B60016003E01800F2E701600B60704714
:1009C000006801304342584170470122002310B5AE
:1009D00052428B4203DC9C0002510133F9E710BD07
:1009E00070B50E0001318D0045192A680400531CB2
:1009F00005D00368581C02D0034801F0BBFB2368F4
:100A00002B60266070BDC04676350000030000688C
:100A1000421C411C02D09100C9581960012192006A
:100A20004942D1507047EFF3108072B6704762B6FA
:100A3000EFF31080704780F310887047EFF3058064
:100A4000C0B27047D318032293431F4A10B51C1F2E
:100A50002260620703D0083B1C001C4B23608022ED
:100A6000231F52041A601A4A043B1860043B1A60A0
:100A70000022043B1A60043B03321A60043B013A33
:100A80001A60043B013A1A60043B19600632043BC9
:100A90001A60043B013A1A60043B013A1A60043BB5
:100AA000013A1A60043B07321A60043B013A1A60AB
:100AB000043B013A1A60043B013A1A602000032308
:100AC00044385B42036010BD7777777788888888E1
:100AD0004D0300000E4B70B51B680E481C680E4B92
:100AE0000025198809B201F045FB0C4801F042FBD2
:100AF000226821000A48043401F03CFB094B2268BB
:100B000001359A42F4D12900074801F033FB70BD4A
:100B10007C000020C635000078000020EF35000082
:100B200006360000777777771A360000FFF77FFFE9
:100B300001DFFEE78021034A490553680B435360F8
:100B40007047C04600ED00E0EFF30980EC468546B3
:100B50004046494652465B46FFB4704601B468467B
:100B6000E5460B4909680860FFF77AFBEE4608483E
:100B700000680068854601BC8446FFBC8046894603
:100B800092469B46684680F30988F5466047000018
:100B90007C0000207047002070470020704770479D
:100BA0007047704710B5024B00B21B68984710BDE4
:100BB0006C080020012110B5034B044A186008009E
:100BC00000F0F0F910BDC0466C080020A50B000035
:100BD00010B5012000F0D8F910BD10B5012000F0CB
:100BE0004BFA10BD10B50200012000F0A1F910BDB4
:100BF00010B50200012000F005F910BD10B501008C
:100C0000012000F03FF910BD10B5012000F070F98F
:100C100010BD704770470000002802D1024B89B216
:100C2000198501207047C04600080042002806D1FF
:100C3000044A137E5B07FCD5024B1B8D0B70012011
:100C40007047C04600080042002806D1044A137EBF
:100C5000DB07FCD5024B89B2198501207047C046DD
:100C6000000800420449CB69034A002BFBD1022152
:100C700013680B431360704700080042F8B5061E66
:100C80003ED10420214A136A03431362204B214AB8
:100C90005A805A78D209FCD110231F481F4C836018
:100CA00023780232134323701D4B1E4C836223684A
:100CB00093432360E3691B4D9B07FBD41A4801F063
:100CC000B7F91A4B0A212B60070001F0F5F9072349
:100CD000AA8919404B03D104C90C1943A9813800D2
:100CE0000A2101F0A5F9AA89C004C30C500B4003E6
:100CF0001843C0239B02A8816B60E3695B07FCD4A7
:100D00003000FFF7AFFF0020F8BDC04600040040F0
:100D1000000C0040144000000044004145440041E4
:100D2000300001530008004280C3C9010420104074
:100D300070B5040016001D00FFF7A0FF00281BD1AE
:100D40000C2363430D4A9E50D318049A5D609A6049
:100D5000002C11D1C2210A4A89005458094B234062
:100D60008024E40123435350802304219B0013601B
:100D7000054A937D0B43937570BDC04670080020F3
:100D800000E100E0FF00FFFF000800420449CB69DA
:100D9000034A002BFBD1022113688B431360704779
:100DA0000008004210B5144C237E5B0706D5134B98
:100DB000218D1A68C9B29868904716E0237E9B0778
:100DC0000BD50E4B5A689868904700280DD1237EAA
:100DD0009B070AD5237E022205E0237EDB0904D08F
:100DE0008022237E524213432376054B1B68002B3F
:100DF00001D0FFF79FFB10BD0008004270080020E3
:100E00007400002010B5002802D0012818D031E06D
:100E1000002909D001292DD12024184B92B2987BAA
:100E2000204398735A8320E01020144B92B2997B90
:100E3000014399731A835A7B02435A730F381BE09C
:100E4000002908D0012915D120240D4B987B20437F
:100E50009873DA6109E01024094B997B2143997357
:100E60009A615A7B22435A7306E05A7B0800224358
:100E70005A7301E00120404210BDC046002C0042E0
:100E80000030004210B5002802D0012810D027E021
:100E9000002903D0012923D1134B18E01020124B55
:100EA000997B014399731A7B02431A730F3819E037
:100EB000002903D0012913D10C4B08E010240B4B5F
:100EC000997B214399731A7B22431A730AE02024E9
:100ED000987B204398731A7B080022431A7301E021
:100EE0000120404210BDC046002C004200300042AC
:100EF000002805D0012813D10A4B0B4A5A8009E07B
:100F00000A4B094A5A80DA7BD209FCD1074B188A6E
:100F100080B206E0DA7BD209FCD1024B186900E00E
:100F200000207047003000421080FFFF002C00427C
:100F300070B505000E001400FFF7DAFF310002194A
:100F40002800FFF75FFF70BD002803D0012806D1FD
:100F5000034A00E0034A022113888B431380704741
:100F600000300042002C0042002803D0012806D1A6
:100F7000034A00E0034A022113880B4313807047A1
:100F800000300042002C0042002804D0012806D185
:100F90008022120301E08022D202014B1A607047C6
:100FA00000E100E070B50400012951D12A4B2B4922
:100FB00059805978C909FCD129482749488058786F
:100FC000C009FCD1002C02D0012C17D040E02549EB
:100FD00020000B889B073DD4802523482D01036A00
:100FE0002B43036201200B8803430B8008881D4BB1
:100FF000C007FBD40C201988814315E01B490B88DE
:101000009B0727D4802518486D01036A2B43036290
:101010000B8823430B800888144BC007FBD40C209B
:101020001988814304380143198018881049014008
:10103000602019801988814319800E4BA100CA5085
:101040002000FFF7A1FF2000FFF78EFF002001E046
:101050000120404270BDC046000C00401B41000012
:101060001C410000002C00420004004000300042FF
:10107000FFF8FFFF7C080020002804D0012806D1DB
:101080008022120301E08022D202014BDA6770470E
:1010900004E100E0002806D0012809D1054A1388A0
:1010A0001843108004E00121034A13880B43138086
:1010B0007047C04600300042002C004210B5164B6D
:1010C000997B1A00C9060DD5597BC9060AD5134A62
:1010D0001168002918D010209A7B02439A73187364
:1010E000002010E0927B0C4B92060DD55A7B9206A5
:1010F0000AD50A4A1168002906D020209A7B0243AB
:101100009A7318731F388847054B1B68002B01D052
:10111000FFF710FA10BDC046002C00427C080020EA
:101120007400002010B5164B997B1A00C9060DD526
:10113000597BC9060AD5134A5168002918D01020D6
:101140009A7B02439A731873002010E0927B0C4B39
:1011500092060DD55A7B92060AD50A4A5168002993
:1011600006D020209A7B02439A7318731F38884751
:10117000054B1B68002B01D0FFF7DCF910BDC04602
:10118000003000427C080020740000201FB50E4B88
:101190000E4A80211A6080225A6000229A60DA602A
:1011A0000B4A01930B4BC9000292009306220923BC
:1011B0000948FFF7DFF9094B1880FFF799F908484C
:1011C00001F054F805B000BD080900208608002091
:1011D00037360000351B0000180900208408002065
:1011E0003D36000010B5C1B2014800F05FFA10BDF5
:1011F0000809002007B500236A465380034B684660
:101200000021595E00F05EF907BDC0468408002049
:1012100013B56B46DC1D00232370044B0122002014
:10122000185E210000F057FB207816BD84080020CE
:1012300070B50F4C0100206882689368013B936091
:10124000002B0DDA9569AB4207DB13681970206833
:101250008268136819780A2907D101F011F806E0AD
:101260001368197023689A6813680133136070BD9E
:101270007000002010B500F0ADFA80220421044B6C
:1012800012039A609A6153331A788A431A7010BD18
:101290000044004170B58025064E074C2D033000F8
:1012A00000F054FB6561300000F050FBA5610020A8
:1012B00070BDC04640420F000044004110B500F030
:1012C000C7FDFFF763FF10BDF7B504000E00FFF781
:1012D000AAFB374B374A1B8807001BB29B009D585F
:1012E000AB6A002B1AD0EA69296A914216D0511CC8
:1012F000E961696A0A400192002E07D1511C05D1AB
:1013000001243800FFF797FB64424FE0002A0ADB14
:10131000D2009B18220003CB03C205E0002EEFD0C1
:1013200001235B4201936C6128001830FFF731FB09
:10133000002811D1019B002B09DA03212800FEF7B8
:10134000B9FF3800FFF777FBFFF7F4FB02E0380046
:10135000FFF771FB012429E0019B8668002B0EDB5F
:101360002B6AEA69696AAC6A9A1A914203DB5A1CD1
:101370002A620B4001E001235B42DB00E418736941
:101380000F2506CB06C4B388052B06D00023072102
:1013900073613000FEF78EFF35893800FFF74BFB95
:1013A00001240E2D02D82800FEF7B8FF2000FEBD54
:1013B00078000020C400002010B5036AC269446AA6
:1013C0009A1A944201DA002009E05A1C0262234072
:1013D000F9D4826ADB00D31805C905C3012010BD0A
:1013E000F0B51E00284B8900CC58284B87B01B88CD
:1013F000019017000380002C05D101253000FFF774
:101400001AFB6D423CE0A388032B2BD001992000EE
:10141000FFF7D2FF051E0BD03000FFF70CFB1C4B73
:1014200001251B689B88052B2AD1FFF783FB27E04A
:10143000002F03D13000FFF7FEFA21E0144F03A97B
:101440003B681A8903902000183004920593FFF737
:10145000A7FA3868019B4361818805394A424A41AD
:10146000111D05E06369019A03CA03C30721200027
:10147000FEF720FF3000FFF7DEFA0125FFF75AFBE9
:10148000280007B0F0BDC046C4000020780000204E
:101490007C00002070B50400FFF7C5FA074B05007B
:1014A0001B8821002380064B1868FFF785FF040086
:1014B0002800FFF7C0FA200070BDC0467800002069
:1014C0007C0000200E4A89000300885810B50028CF
:1014D00012D021221A808288032A09D1426912CBB4
:1014E00012C20721FEF7E6FE0120064B186005E058
:1014F0001900FFF761FF01E00120404210BDC04626
:10150000C40000207400002070B504000D00FFF737
:1015100095FA002804D029002000FFF7D3FF10E03F
:10152000084B1B881BB29D4203D12000FFF7B2FF7E
:1015300007E0FFF778FA0122030029002000FFF7F7
:101540004FFF70BD7800002070B504000D00FFF75C
:1015500075FA061E04D029002000FFF7B3FF10E043
:10156000084B1B881BB29D4203D12000FFF792FF5E
:1015700007E0FFF758FA3200030029002000FFF7C8
:101580002FFF70BD78000020F7B50F000500019215
:10159000FFF749FA0600094B094A1B8805211BB2CF
:1015A0009B009C582000FEF785FE676133002800F1
:1015B00001220199FFF714FFFEBDC046780000200C
:1015C000C400002070B504000D00FFF72CFA0022C3
:1015D000A35E0F4A9B009C580600002C15D0A388E0
:1015E000052B02D0FFF727FA0FE06369200006CD34
:1015F00006C30721FEF75EFE24893000FFF71BFAC1
:101600002000FEF78BFE012001E00120404270BD6A
:10161000C40000200022835E10B5094A9B00985840
:101620008388052B09D1436914C914C30721FEF728
:1016300041FE0120034B186001E00120404210BD33
:10164000C40000207400002010B50021FFF73CFE0C
:1016500010BD10B50121FFF737FE10BD002909D0DC
:101660004A1E114006D1054B1B689862D961196268
:101670005A6201E001214942080070477C000020C5
:10168000F0B50400002090420FD0E3686568AB42DB
:101690000BD05F1C0E5CE760A768DB199D4200D889
:1016A0005B1B25680130EE54EDE7F0BD30B54268B4
:1016B000C468030094420ED182680068651E805C95
:1016C000DD60002D02D100229A6006E001329A60AE
:1016D000944202D1F7E701204042DA68541CDC60F2
:1016E0009C68A2185C68A24200D3121B1B68995424
:1016F00030BDC268002A10D083680168013AC95C15
:10170000C260002A02D10023836004E042680133F2
:1017100083609342F7D0080001E001204042704707
:10172000F8B5C56804000F00954200D91500002DDA
:101730001ED0A16863685E1A23685918AE420AD3A6
:101740002A00380000F0F0FC0023AE4201D0A3686C
:101750005B19A36009E03200380000F0E5FCAA1B29
:10176000A260B819216800F0DFFCE3685B1BE3604E
:101770002800F8BD0300C068884204D2002201009E
:10178000DA609A6009E09A68401AD8605868521A7C
:101790009A60824201D912189A600800704730B5E9
:1017A00085B06946030031CB31C11B6868460B60C8
:1017B000FFF79FFF05B030BDF0B585B06D46030063
:1017C000C1CBC1C51B6868462B60FFF7A9FF05B0F8
:1017D000F0BD000010B50224274A1378A34313700C
:1017E00000F0F6FB0E221021244B25489A619A69DD
:1017F0000A439A614268224342609A698A439A6125
:10180000204B214A196A0A4080211A621A6A8A43C7
:101810001A621A6A40398A431A621A6A22431A62A1
:101820000822D9681142FCD00121184A1170507861
:10183000164940B20028FADB154888601548486010
:10184000154848805178114849B20029FADB2F2108
:1018500099640F39D964114B1E391970104B1B78DC
:1018600080235B00836084235B02436053785BB218
:10187000002BFBDB10BDC046001000400004004000
:101880000040004100080040FFFCFFFF000C00404A
:101890000108000001060100014100004408004069
:1018A0005008004007B500236A46019153806946FD
:1018B00002B26846FFF768FE01980EBD07B5012326
:1018C0006A465380002302B2694668460193FFF7D7
:1018D0005BFE01980EBD1FB50092022202AB5A803A
:1018E0006A4601910392190002B21800FFF74CFEFC
:1018F000009805B000BD1FB50092032202AB5A80CC
:101900006A4601910392190002B21800FFF73CFEEB
:10191000009805B000BD10B500F094F8041E03D186
:1019200000F0D6FB092307E04068236998470028A8
:1019300006DA00F0CDFB052303600120404203E0FE
:10194000606800F08BF8002010BD000037B5020081
:101950000021684600F008F9019D0749280000F0C1
:1019600067FB009C04490419280000F0A5FB200037
:1019700000F09EFA00203EBD40420F0007B5010076
:101980000022684600F0F0F80098019900F090FA03
:1019900000200EBD962230B5154C87B052000021B4
:1019A000200000F0CAFB134D00210023E85EFFF782
:1019B00079FF012301930022AB5E01A902930E4B34
:1019C000142203930D4B200004930D4B059300F05C
:1019D000ABFB200001A91422143000F0A5FB20006D
:1019E000142201A9283000F09FFB0F2007B030BD62
:1019F000180D002084080020D7180000F7180000F8
:101A0000BD180000F8B514250024AC460C4E654600
:101A10006543AF59002F09D001340F2CF7D100F0E6
:101A200057FB172303600120404207E00127AF5115
:101A3000751968602000A960EA602B61F8BDC04696
:101A4000180D0020020000200E2A04D8142353434E
:101A50001800014B18187047180D002010B50E28FB
:101A600006D814225043034B0021181800F065FBE0
:101A700010BDC046180D0020F0B5002485B0070049
:101A80002B4800F0F3FB250002A8FFF7E2FD02ABB4
:101A900019880BB2212B2AD002AA5288012A18D009
:101AA000002A02D0022A07D01AE0002D02D10395A5
:101AB0000D0018E0102314E02AB2039C9A4216D0BD
:101AC000162302A95B42080003930024FFF77AFD66
:101AD0000DE02AB29A4203D100240394250002E0CB
:101AE00016235B42039302A90800FFF76BFDFB6816
:101AF000002BC9D0002CC7D0FEF795FFFB682668E5
:101B000001909E4200DD1E00320061683800FFF740
:101B100007FE2660002602AB190018001D805E80BB
:101B20000394FFF74FFD0198FEF785FF3400ABE704
:101B30004F36000010B5FFF79FFF000082B013B5CD
:101B4000C9180593069BD218054B9A4202D9054B3A
:101B50000131D2180160426016BC08BC02B01847BF
:101B600040420F00C0BDF0FF0160426070470000BE
:101B700082B013B5069C0593944201D8C91A03E0BC
:101B80000139C91A044BD218121B0160426016BCFD
:101B900008BC02B01847C04640420F001FB5040001
:101BA0000120944207D307D1994203D3C81A411E9A
:101BB000884101E00120404204B010BD10B5036926
:101BC000010043600248FEF7EBFE012010BDC04655
:101BD000480E00200E4A0F49136870B55B18136059
:101BE00080220D4C52012000E36821619B18E360C4
:101BF000FFF7E4FF09480568002D07D0EB68E268AD
:101C0000934203D1FEF7C5FE2800F1E770BDC04640
:101C10004C0E0020000024F4580E0020500E00202E
:101C200010B52023C05EFEF763FC10BD10B5C0697F
:101C3000FEF754FE10BD07B56A46038B5380C36997
:101C400001932023C15E6846FFF73CFC07BD0000FE
:101C500070B5134C2368002B20D0124D124E28680B
:101C6000421C05D05B683268934217D0FEF7C0FD76
:101C700023680E4A5B68146833601C19FEF786FD02
:101C800023000B4A143B1B1A934201D90A3004006B
:101C9000002208492000FEF7A5FD2860002070BD45
:101CA000480E00200C000020540E00204C0E002096
:101CB000000024F4B91C00000123012210B5094CD6
:101CC00052422360084B09481A60FEF762FE002862
:101CD00004D100232360FFF7BBFF10BD4369984781
:101CE000F7E7C046440E00200C000020480E0020FC
:101CF000026810B513051B0DD11A0C4A44685343F2
:101D00001B1901609C4205D9094A9B188022520187
:101D10008A180260074A934206D98021044A490181
:101D20009B18026852180260436010BD40420F00C9
:101D30000000DC0B000024F470B50500FEF726FD62
:101D4000084B09491B68C41A200000F071F9074BC1
:101D50000549DB6818182860200000F0ADF96960BB
:101D600070BDC0464C0E002040420F00580E0020AF
:101D700030B5040087B004A8FFF7DEFF236902AD89
:101D800000930499059A2800E368FFF7D7FE230023
:101D900020000C3306CD06C30C30FFF7A9FFE36823
:101DA000002B04D123690A2B01D90A3B2361FEF7DA
:101DB0003AFE104AE368D2680500934206D0636099
:101DC00021000D48FEF7ECFD00240CE02000FFF799
:101DD000F5FE0024A04206D0084B1B68A34202D1A6
:101DE000FFF736FF04002800FEF725FE200007B0AD
:101DF00030BDC046580E0020500E0020440E00207A
:101E000013B504006846FFF797FF009B2360019B12
:101E1000636013BD37B504006846FFF78DFF009D72
:101E20003C21280000F048F9280021603C2100F006
:101E3000FFF83C2100F040F96160E1212800090130
:101E400000F0F6F8182100F037F9A16037BD000066
:101E500010B5FEF7E8FD00230400084A08481360A7
:101E6000C361084AC360084B42610361FFF7A6FEE5
:101E7000FFF7EEFE2000FEF7DEFD10BD4C0E002049
:101E8000580E0020D51B0000000024F437B5019245
:101E9000064A6C4642610022C261020000910C3287
:101EA00022CC22C20384FFF763FF3EBD211C000049
:101EB00070B58EB06D46041E0090019105D1081ECC
:101EC000062802D8FEF726FC13E0002303AE3000FC
:101ED00003930493FEF7D8FC074B0C960A9308ABC8
:101EE00006CD06C305A8FFF743FF04003000FEF748
:101EF000CBFC20000EB070BD2D1C000007B5020009
:101F000000216846FFF730FE00980199FFF7D0FFE7
:101F10000EBD000070B50400FEF785FD0500210030
:101F20000648FEF729FD21000548FEF725FDFFF7CD
:101F30008FFE2800FEF77FFD70BDC046480E0020D2
:101F4000500E002037B5019206AA12886C46028313
:101F5000079A0091C261020004490C32416122CC0F
:101F600022C20384FFF704FF37BDC046371C0000C0
:101F7000F0B506008FB00192124B134A05AC1B88D6
:101F8000124F6261019A03AD2000238400910891F1
:101F900009926F806D602783E561FFF7E9FE3000ED
:101FA000FFF757FB7388BB4202D17368AB4204D082
:101FB0002000FFF7AFFF012001E0012040420FB0F9
:101FC000F0BDC04678000020371C0000393000000A
:101FD000144A154B116AF0B50B40C02109040B439C
:101FE00080211362D369C9051B021B0A0B43C0245D
:101FF000D36103270022FF26A40093080B499B000E
:102000005B18110035003940C9008D401859013264
:10201000A8438446402088406146014319511C2A48
:10202000EBD1F0BD00ED00E0FFFF00FF00E100E0BC
:10203000002934D00123002210B488422CD301247B
:102040002407A14204D2814202D209011B01F8E710
:10205000E400A14204D2814202D249005B00F8E7C9
:10206000884201D3401A1A434C08A04202D3001BF5
:102070005C0822438C08A04202D3001B9C08224328
:10208000CC08A04202D3001BDC082243002803D066
:102090001B0901D00909E3E7101C10BC7047002898
:1020A00001D00020C04307B4024802A140180290AA
:1020B00003BDC046190000000029F0D003B5FFF7AA
:1020C000B9FF0EBC4243891A1847C0467047C04644
:1020D000014B18687047C046700000200E4B70B569
:1020E00000251E000D4CE41AA410A54204D0AB003C
:1020F000F35898470135F8E7FDF7E8FF084B00254E
:102100001E00084CE41AA410A54204D0AB00F358FA
:1021100098470135F8E770BD003700000037000030
:102120000037000000370000002310B59A4203D0AA
:10213000CC5CC4540133F9E710BD0300821893420C
:1021400002D019700133FAE770470EB417B5041EB8
:1021500004D08369002B01D100F07CFA06AB059A0C
:10216000A1682000019300F065FC1EBC08BC03B010
:10217000184700000FB40B4B13B51C68002C05D09A
:10218000A369002B02D1200000F064FA05AB049A89
:10219000A1682000019300F04DFC16BC08BC04B0FF
:1021A0001847C0467000002070B505000E000028DA
:1021B00004D08369002B01D100F04CFAAC68A389EC
:1021C0001B0702D52369002B19D12100280000F03C
:1021D000B9F8002813D00120404245E03178002BA7
:1021E0001BDAA269934211DA2200280000F048F8B5
:1021F000013042424241D0B20028ECD10136A368FE
:102200003278013BA360002AE8D10CE02368197002
:10221000236819780A2903D1E6E72368197023682F
:1022200001332360EAE7002B17DAA269934208DB47
:102230000A2322681370236819780A2911D1220011
:1022400001E022000A21280000F01AF80130424281
:102250004241D0B2002806D0BDE70A23226813709D
:102260002368013323600A2070BD000010B5034BC2
:1022700001001868FFF798FF10BDC04670000020ED
:10228000F8B505000F001400002804D08369002B66
:1022900001D100F0DFF9234B9C4201D16C6808E0CA
:1022A000214B9C4201D1AC6803E0204B9C4200D101
:1022B000EC68A369A360A3891B070AD52369002BD7
:1022C00007D023682269FEB2981A636998420FDB2F
:1022D00008E02100280000F035F80028F1D00120A6
:1022E00040421DE02100280000F026F90028F6D128
:1022F000A3680130013BA36023685A1C22601F7051
:102300006369984205D0A3893000DB0708D50A2EFF
:1023100006D12100280000F00FF90028DFD130009D
:10232000F8BDC0466C3600008C360000AC360000AC
:1023300010B5034B0A0001001868FFF7A1FF10BD9C
:1023400070000020354B70B51D6806000C00002D94
:1023500005D0AB69002B02D1280000F07BF9304B8F
:102360009C4201D16C6808E02E4B9C4201D1AC68C4
:1023700003E02D4B9C4200D1EC68A3899AB211076F
:1023800023D4D10607D40922012032603732134307
:10239000A381404240E0530713D5616B002908D068
:1023A00023004433994202D0300000F071FA002338
:1023B00063632422A3899343A38100236360236979
:1023C00023600822A3891343A3812369002B0BD127
:1023D000A023A2899B00134080229200934203D045
:1023E0002100300000F002FA0123A289134005D039
:1023F0000023A36063695B42A36103E0910700D4FB
:102400006369A36000202369834205D1130603D5C5
:1024100040231A43A281013870BDC04670000020DD
:102420006C3600008C360000AC360000F7B58A89A7
:1024300005000C0013075AD44B68002B02DC0B6C10
:10244000002B19DDE76A002F16D000232E682B60C1
:1024500080235B011A4001D0606D14E00123216AE2
:102460002800B847431C0ED12B68002B0BD01D2B26
:1024700001D0162B02D12E6000205AE04022A38901
:102480001343A38155E0A3895B0706D56368C01A8F
:10249000636B002B01D0236CC01A00230200216A59
:1024A0002800E76AB847A389421C06D129681D297C
:1024B0003AD8204ACA40D20736D500226260226943
:1024C0002260DB0405D5431C02D12B68002B00D110
:1024D0006065616B2E600029CED0230044339942A1
:1024E00002D0280000F0D4F90020606321E00F69D9
:1024F000002FC1D00B680F60DB1B019300239207F4
:1025000000D14B69A36003E0019B3F181B1A0193A4
:10251000019B002BB0DD019B3A00216A2800A66ACE
:10252000B0470028F0DCA389402201201343A38197
:102530004042FEBD010040200B6970B505000C0053
:10254000002B01D100201CE0002804D08369002B5F
:1025500001D100F07FF80B4B9C4201D16C6808E080
:10256000094B9C4201D1AC6803E0084B9C4200D16E
:10257000EC680C22A35E002BE4D021002800FFF7BA
:1025800055FF70BD6C3600008C360000AC36000084
:1025900010B5011E05D1054B0549186800F004F976
:1025A00003E0044B1868FFF7C7FF10BD6836000052
:1025B00039250000700000200020704710B5024946
:1025C00000F0F2F810BDC04639250000002310B518
:1025D000040003604360836081814366C2810361BC
:1025E00043618361190008225C30FFF7A6FD054BAB
:1025F00024626362044BA362044BE362044B2363D3
:1026000010BDC046A52F0000D12F000009300000EA
:10261000353000000020704770B568254B1E5D43C3
:102620000E002900743100F079F9041E08D0002151
:102630002A00016046600C30A0606832FFF77DFD23
:10264000200070BD10B5024B1868FFF7B7FF10BD32
:1026500068360000836913B50400002B28D1836419
:10266000C3640365134B144A1B688262019398424A
:1026700001D101238361200000F020F86060200078
:1026800000F01CF8A060200000F018F80022E060C4
:1026900004216068FFF79AFF01220921A068FFF773
:1026A00095FF02221221E068FFF790FF0123A3614A
:1026B00013BDC04668360000BD250000F8B51D4BAF
:1026C00006001D68AB69002B02D12800FFF7C2FF8E
:1026D0004835AC686B68013B05D40C22A75E002F1F
:1026E00010D06834F7E72B68002B01D02D68F0E795
:1026F00004213000FFF790FF28600028F6D10C235A
:10270000336016E0012320005B42E3810233A381A2
:1027100067662760A760676027616761A7615C30B3
:1027200008223900FFF709FD20006763A763A7644B
:10273000E764F8BD6836000070477047704770471F
:1027400010B5034B0349186800F012F810BDC046DD
:10275000700000201526000010B5034B03491868CF
:1027600000F006F810BDC04670000020B92500003A
:10277000F7B54830040000260191002C12D0A5685E
:102780006768013F0CD4AB89012B07D90E22AB5EE1
:10279000013303D02800019B984706436835F0E7D2
:1027A0002468EAE73000FEBDF7B504000700002604
:1027B00001914834002C16D06368A5680093009BF3
:1027C000013B00930DD4AB89012B08D90E22AB5EDF
:1027D000013304D029003800019B9847064368352F
:1027E000EDE72468E6E73000FEBD0000F0B58B8918
:1027F00091B006000C009B0726D40E23C95E002969
:1028000004DA8023A5891D4010D10CE001AAFDF750
:10281000D6FC0028F5DBF023029D1B021D401A4B5D
:10282000ED186B425D418027FF0001E00025402745
:102830003900300000F072F800280CD1A3899A0505
:102840001FD402221343A381230047332360236153
:102850000123636115E080220C4BB362A3892060E1
:102860001343A38120616761002D0AD00E23E15E2E
:102870003000FDF7AEFC002803D00122A3891343EA
:10288000A38111B0F0BDC04600E0FFFFBD250000F0
:1028900030B500293ED004390B68002B00DAC91886
:1028A0001D4A13681400002B02D14B60116031E007
:1028B0008B420DD90A688818834203D118685B6877
:1028C00082180A604B60216024E08A4203D813001A
:1028D0005A68002AF9D11D685C198C420BD109682D
:1028E000691858181960824214D11068526841184A
:1028F00019605A600EE08C4202D90C23036009E093
:1029000008680C18A24203D11468526820180860A5
:102910004A60596030BDC046800E0020032370B568
:10292000CD1C9D43083506000C2D01D20C2505E079
:10293000002D03DA0C230020336040E0A942F9D8CF
:102940001F4B1C681A002100002913D00B685B1B69
:102950000DD40B2B02D90B60CC181EE08C4202D197
:10296000636813601AE04B6863600C0016E00C00AB
:102970004968E9E7134C2368002B03D13000FDF7C9
:10298000C7FB206029003000FDF7C2FB431CD1D0FB
:102990000323C41C9C43A0420AD1256020000722C7
:1029A0000B30231D9043C31A09D05A42E25006E06F
:1029B000211A3000FDF7ACFB431CEED1BAE770BD25
:1029C000800E00207C0E0020936810B5013B9360C0
:1029D000002B05DA9469A34208DBCBB20A2B05D0A1
:1029E0001368581C10601970C8B201E0FFF748FC6A
:1029F00010BDF8B506000F001400D518AC4208D081
:102A000021783A003000FFF7DFFF0134431CF5D195
:102A100000E00020F8BD936810B51400002B02D12F
:102A20005360180004E000F00BFB0023A360636018
:102A300010BD0000F0B59FB006000F000292059394
:102A4000002804D08369002B01D1FFF703FE7F4BE0
:102A50009F4201D1776808E07D4B9F4201D1B76862
:102A600003E07C4B9F4200D1F768BB891B070AD566
:102A70003B69002B07D0002306AD6B6120336B76DA
:102A80001033AB763DE039003000FFF75BFC0028E7
:102A9000F1D001204042D6E0059A111D126805913F
:102AA000002A00DA7FE00992013423782E2B00D12E
:102AB0008DE021780322684800F02AFC002807D026
:102AC000654B2A68C01A4023834013432B600134AE
:102AD0002178631C062261480293297600F018FCD5
:102AE000002800D19DE05E4B002B00D090E0072233
:102AF000059B07339343083305936B69039A9B182F
:102B00006B61029C2378002B04D1029BE31A04938F
:102B100012D003E0252BF8D00134F3E7049B029A8E
:102B200039003000FFF765FF431C00D186E06A6979
:102B3000049B944663446B612378002B7ED0012272
:102B4000002352426A6002A95432521801342B60A9
:102B5000EB60AB601370AB6521780522414800F053
:102B6000D7FB002808D03F4B2A68C01A01238340B6
:102B700013432B600134EFE72B68DA0604D55322A8
:102B8000202102A8121811701A0704D553222B21F4
:102B900002A81218117022782A2A00D17CE7099B1A
:102BA00000200A2105E05242EA60022213432B6012
:102BB0007AE72278303A092A04D84B4301349B182B
:102BC0000120F6E7002800D16FE709936DE76378ED
:102BD0002A2B0AD1059B02341A1D1B680592002B73
:102BE00001DA01235B42079363E700230A201A00FE
:102BF00001346B6021783039092904D8424301340B
:102C000052180123F6E7002B00D152E7079250E754
:102C100005AB00933A00144B2900300000E000BFE0
:102C200007E005AB00933A000F4B2900300000F09D
:102C300097F80390039B013300D05EE7BB895B06E6
:102C400000D526E70B981FB0F0BDC0466C360000DB
:102C50008C360000AC360000D2360000D6360000BC
:102C600000000000CC360000F329000010B513006E
:102C70000A00010002480068FFF7DCFE10BDC046F4
:102C800070000020F7B5170001938A680B69009067
:102C90000C00934200DA130022003B6043321278AA
:102CA000002A01D001333B6023689B0602D53B68B4
:102CB00002333B60062523681D401ED023004333AA
:102CC0001B785A1E9341226892061CD53020E118C9
:102CD0004331087021005A1C45310978A21843324B
:102CE000023311700FE0220001231932019900987C
:102CF000089EB047431C0ED00135E3683A689B1A22
:102D00009D42F0DBDAE72200019943320098089DEA
:102D1000A847431C02D10120404220E0062320683E
:102D2000E1683A6803400025042B03D18D1AEB4378
:102D3000DB171D40A3682269934201DD9B1AED1841
:102D40000027BD420AD0220001231A3201990098BF
:102D5000089EB047431CDED00137F2E70020FEBDDD
:102D6000F0B58BB006920A004332079305900492A7
:102D70000A7E0C00109B6E2A00D1ABE011D8632AAA
:102D800022D009D8002A00D1B5E0582A00D0C5E0E9
:102D900045310A70814A4FE0642A1DD0692A1BD050
:102DA000BCE0732A00D1AAE009D86F2A29D0702A82
:102DB00000D0B3E0202209680A43226037E0752A78
:102DC0001FD0782A33D0A9E00E001A684236111DB0
:102DD000196013683370A4E021681A68080606D4E5
:102DE000490604D5111D19600023D55E02E0111DAE
:102DF00019601568002D3BDA2D23049A6D4213707B
:102E000036E021681A68080606D4490604D5156814
:102E1000111D1960ADB202E0111D196015685F4BFC
:102E2000227E039308276F2A1DD00A271BE0220069
:102E30007821453211705A4A19680392081D226898
:102E400018600D68100602D4500600D5ADB2D30745
:102E500002D520231A4322601027002D03D12023FE
:102E600022689A4322602300002243331A7002E052
:102E70000A274A4B03936368A360002B09DB0422F3
:102E8000216891432160002D05D1049E002B11D0B3
:102E90007BE0002D79D0049E28003900FFF70CF963
:102EA000039B013E5B5C280033703900FFF7C0F8DC
:102EB000051EF1D1082F09D12368DB0706D5636809
:102EC0002269934202DC3023013E3370049B9B1B3A
:102ED00023612BE009681A68080607D4490605D55E
:102EE000111D19601368A28A1A8004E0111D19606F
:102EF000136862691A600023049E236116E01A6851
:102F0000111D1960166800216268300000F000FA97
:102F1000002801D0801B6060636803E02600423611
:102F20003270012323610023049A1370079B09AABE
:102F300000932100069B0598FFF7A4FE431C02D1D5
:102F40000120404227E02369320006990598079D39
:102F5000A847431CF4D0236800259B070FD4099B86
:102F6000E068984217DA180015E0220001231932B0
:102F700006990598079EB047431CE1D00135E368E8
:102F8000099A9B1A9D42F0DBE9E72600039B423633
:102F90001B7833708EE70BB0F0BDC046DD36000005
:102FA000EE36000070B50C000E25495FFDF7E8F81D
:102FB000002803DB636D1B18636503E0A289024BE5
:102FC0001340A38170BDC046FFEFFFFF0020704794
:102FD000F8B51F008B8905000C001600DB0505D530
:102FE0000E23C95E00220223FDF7E4F8A289054BF7
:102FF00028001340A38132000E23E15E3B00FDF761
:10300000C6F8F8BDFFEFFFFF70B50C000E25495F55
:10301000FDF7D0F8A389421C03D1054A1340A381D0
:1030200004E0802252011343A381606570BDC04655
:10303000FFEFFFFF10B50E23C95EFDF7B6F810BD18
:10304000F0B5936887B002900C001700002B01D1F7
:10305000002054E18B891B070CD50B69002B09D08C
:1030600002253B68A2890193154029D000230093D3
:103070001D001BE021000298FFF764F90028EFD043
:103080003BE1A04A2B1E934200D91300009A216A0B
:103090000298A66AB047002800DC2AE1009B2D1A9E
:1030A0001B180093BB68181AB860D1D0002DE8D166
:1030B000019B1B680093019B5D6808330193F5E752
:1030C0000123134003D0059500950395D2E00393A7
:1030D0000093009B002B09D1019B1B680393019B6C
:1030E0005B680093019B08330193F2E78023A28978
:1030F0009B00A5681A4255D0009BAB4244D3902355
:10310000DB001A423DD003262169236800985B1A30
:10311000049363695E43F30F9E19049B7610013399
:103120001B18B34200D91E00530510D53100029878
:10313000FFF7F4FB051E18D0049A2169FEF7F4FF8F
:10314000A289714B134080221343A38111E0320006
:10315000029800F0FDF8051E0BD121690298FFF7D7
:1031600097FB8022A3899343A3810C23029A1360C7
:10317000BFE0049B2561ED1825606661009DF61A8D
:10318000A660009BAB4200D2009D2A0003992068F4
:1031900000F0C9F8A3685B1BA36023685D19256074
:1031A000009D2FE020682369984203D86669009B40
:1031B000B34216D2009B9D4200D91D002A000399FC
:1031C00000F0B1F8A36822685B1B5219A36022606B
:1031D000002B17D121000298FFF7AEF9002811D07B
:1031E00087E00098494B984200D91800310000F060
:1031F000E1F83300A56A4343039A216A0298A8477D
:10320000051E76DD039B5B190393009B5B1B0093FC
:10321000BB685D1BBD6000D05BE719E7059B002B19
:1032200037D0039B04959D4200D9049320682269FE
:10323000636990423DD9A2689E18049AB24238DD73
:103240000099320000F06FF8236821009B19236079
:103250000298FFF771F900284BD1AD1B41D0009BBC
:103260009B190093039B9B1B0393BB689E1BBE6033
:1032700000D1EDE6039B002BD0D1019B1B6800938E
:10328000019B5B680393019B083301930023059323
:10329000F0E7039A0A21009800F03AF8002803D0DA
:1032A000009B0130C51A01E0039B5D1C01230593BF
:1032B000B7E7049A9A4207DBA66A009A216A029845
:1032C000B047061EC9DC14E0049A009900F02BF800
:1032D000049AA36816009B1AA36023689B182360B6
:1032E000BBE721000298FFF727F9002801D10595D7
:1032F000B5E74022A3891343A3810120404207B0D0
:10330000F0BDC04600FCFF7F7FFBFFFFFFFFFF7F9C
:10331000C9B28218904204D003788B4202D00130A7
:10332000F8E70020704710B5884202D98B18984200
:1033300001D3002305E09B1A013A08D3995C81541C
:10334000FAE7934203D0CC5CC4540133F9E710BDD3
:10335000F8B506000C001500002904D11100FFF794
:10336000DDFA040018E0002A03D1FFF791FA2C00DF
:1033700012E000F013F885420ED929003000FFF763
:10338000CDFA071E07D021002A00FEF7CDFE21004E
:103390003000FFF77DFA3C002000F8BD0B1F1A68D3
:1033A000101F002A04DA891804390B68D018043871
:1033B00070470000002941D010B4041C4C40A446C2
:1033C00001230022002900D54942002800D54042AF
:1033D00088422CD301242407A14204D2814202D284
:1033E00009011B01F8E7E400A14204D2814202D2A4
:1033F00049005B00F8E7884201D3401A1A434C08A1
:10340000A04202D3001B5C0822438C08A04202D3D6
:10341000001B9C082243CC08A04202D3001BDC08FE
:103420002243002803D01B0901D00909E3E7101C3F
:103430006446002C00D5404210BC7047002806D0DE
:1034400003DB0020C043400801E08020000607B4F1
:10345000024802A14018029003BDC04671ECFFFF74
:103460000029EBD003B5FFF7A7FF0EBC4243891A32
:103470001847C046232120657869742025693A20C1
:10348000726573657474696E670A00323031342E68
:1034900031322D313832332D673235666534332D74
:1034A0006C6F63616C686F73742D747269616C000A
:1034B0006B65726E656C5F696E697428293A205479
:1034C0006869732069732052494F5421202856653A
:1034D0007273696F6E3A202573290A006B65726EEC
:1034E000656C5F696E697428293A206572726F7223
:1034F000206372656174696E672069646C6520740D
:1035000061736B2E0A006B65726E656C5F696E6924
:103510007428293A206572726F7220637265617433
:10352000696E67206D61696E207461736B2E0A008D
:103530006B65726E656C5F696E697428293A206AE2
:10354000756D70696E6720696E746F20666972733D
:1035500074207461736B2E2E2E0A0069646C6500F2
:103560006D61696E004E6F20687774696D657220B9
:103570006C6566742E006C69666F5F696E73657248
:10358000743A206F76657277726974696E6720612C
:10359000727261795B25695D203D3D202569207748
:1035A0006974682025690A0A0A0909546865206C4B
:1035B00069666F2069732062726F6B656E206E6F33
:1035C000772E0A0A0A007072696E74696E67207439
:1035D00068652063757272656E7420737461636BC5
:1035E000206F66207468726561642025690A002076
:1035F00020616464726573733A2020202020206467
:103600006174613A0A0020203078253038783A20F9
:1036100020203078253038780A0063757272656E24
:103620007420737461636B2073697A653A2025692D
:1036300020627974650A0075617274300075617278
:1036400074305F696E69742829205B4F4B5D0055AB
:1036500041525430207468726561642073746172E1
:103660007465642E0043000010000020000000007C
:10367000000000000000000000000000000000004A
:10368000000000000000000000000000000000003A
:10369000000000000000000000000000000000002A
:1036A000000000000000000000000000000000001A
:1036B000000000000000000000000000000000000A
:1036C000000000000000000000000000232D302B4F
:1036D0002000686C4C006566674546470030313213
:1036E000333435363738394142434445460030316A
:1036F00032333435363738396162636465660000C9
:103700008C1000205B35000060350000FFFFFFFFDC
:10371000000000006C3600008C360000AC36000063
:103720000000000000000000000000000000000099
:1037300065360000000000000000000000000000EE
:103740000000000000000000000000000000000079
:103750000000000000000000000000000000000069
:103760000000000000000000000000000000000059
:043770001000002025
:00000001FF
