:10000000180E00204502000095020000A102000029
:10001000990200008D020000410200000000000073
:10002000000000000000000000000000010D0000C2
:100030009D02000000000000E10C000091020000A1
:100040009102000091020000910200009102000064
:100050009102000091020000910200009102000054
:10006000910200003D0F000091020000910200008B
:100070009102000091020000910200009102000034
:10008000910200009102000055120000BD12000014
:100090009102000091020000910200009102000014
:1000A0009102000091020000910200009102000004
:1000B00010B5034800F050FA024800F0E9F910BD0D
:1000C000F0030020A803002007B5094800F0B6F9A6
:1000D000084B094A00201A60E121402298605A60CA
:1000E000D860064A00900300490200F0EDFE07BD0B
:1000F000A8030020F0030020B0030020B10000009E
:1001000070470000010010B5054801F06BFABFF31D
:100110004F8F044A044BDA60BFF34F8FC046FDE7B0
:100120001C2800000400FA0500ED00E070B50D0089
:10013000060000F044FD0E4B1C681A006319002DE8
:1001400005DD0C49994209D39C420CD906E0002DEB
:1001500009D00949994201D89C4204D20C230124B8
:100160003360644200E0136000F031FD200070BD98
:100170000000002000800020180E0020014B18888D
:1001800000B27047040400200323036001204042B2
:1001900070471323036001204042704770B50B483D
:1001A00016001C0000F04AF900F009FD050008489F
:1001B000C268A24200D92200310000F007FA040010
:1001C000280000F004FD200070BDC046A8030020F8
:1001D000F003002070B51D001400D618B44205D0FD
:1001E0002178002000F0FCFD0134F7E7280070BD05
:1001F0001323036001204042704713230360012052
:10020000404270471323036001204042704713238C
:10021000036001204042704700230222036018005F
:100220008A425841704713230360012040427047BF
:1002300010B501F08DF9032303600120404210BD89
:10024000C046FDE7002370B50B480C490C4C1A184A
:100250008A4203D2E55804331560F8E70021094BC0
:10026000094A934201D202C3FBE701F05BF801F0B7
:1002700075F900F039FA70BD00000020A8030020D5
:10028000982A0000A8030020180C0020C046FDE7B3
:10029000C046FDE7C046FDE7C046FDE7C046FDE7B6
:1002A000C046FDE770B500240E4B0F4E1C600F4B8F
:1002B0003568186800F03DFC0D4B8000C3582000E5
:1002C0000C3B9D420DD0A54204D0AA88062A01D13C
:1002D0000132AA80062201209A80D988054A33601B
:1002E000118070BD0004002008040020D404002008
:1002F000100400200404002070B504000D00838861
:10030000052910D9052B24D821000089124B800023
:1003100018180C3100F05AF8012321890F4A8B403C
:1003200011680B4314E0052B13D9210000890A4EF4
:1003300080000C31301800F05FF821898B009B5948
:10034000002B06D101338B40044A116899430B00FE
:100350001360A58070BDC04610040020D4040020A6
:1003600010B5094B1B689A88052A02D91B8983425C
:1003700009D900F02FFC002803D00122034B1A609A
:1003800001E000F0A3FC10BD0804002000040020E0
:1003900070B5002400F013FC084B094A1B88094D76
:1003A0001BB29B009C50084A210013682868013B3F
:1003B0001360FFF7A1FF2C6000F084FC0404002010
:1003C00050040020080400200C0400200368002BC7
:1003D0000ED00B6003685B684B6003685B68196054
:1003E0000368596003685A68934204D1596002E077
:1003F00001600960496070470B68994207D04A68FC
:1004000013600B685A600268914202D100E0002339
:100410000360704710B504002168002907D101224C
:10042000200000F071F80028F6D0012000E0002044
:1004300010BD10B5FFF7EEFF10BD0000F0B585B0A0
:100440000400FFF7E7FF00281ED100F0B8FB05000D
:100450002000FFF7DFFF061E03D0280000F0B7FBE7
:1004600012E00A4F02213868FFF746FF3B68201D63
:100470001A8901A902920393019600F014F9280049
:1004800000F0A5FB00F022FC05B0F0BD0804002040
:1004900070B5040000F093FB23680500002B0ED01C
:1004A000201D00F0F9F8002808D0846807212000FA
:1004B000FFF722FF2089FFF753FF00E020602800AC
:1004C00000F085FB70BD000070B5040000F077FB04
:1004D00023680500002B0AD0201D00F0DDF800285D
:1004E00004D007218068FFF707FF00E02060054B7C
:1004F00001211868FFF700FF280000F068FB00F0FA
:10050000E5FB70BD0804002070B504000E00150066
:1005100000F055FB2368B34203D000F058FB0020E5
:1005200003E0256000F053FB012070BDF0B504002E
:10053000002090420FD0E3686568AB420BD05F1C8F
:100540000E5CE760A768DB199D4200D85B1B25683D
:100550000130EE54EDE7F0BD30B54268C4680300E9
:1005600094420ED182680068651E805CDD60002DBB
:1005700002D100229A6006E001329A60944202D1D0
:10058000F7E701204042DA68541CDC609C68A2183E
:100590005C68A24200D3121B1B68995430BDC2682C
:1005A000002A10D083680168013AC95CC260002A41
:1005B00002D10023836004E04268013383609342E8
:1005C000F7D0080001E0012040427047F8B5C56847
:1005D00004000F00954200D91500002D1ED0A1681F
:1005E00063685E1A23685918AE420AD32A0038009D
:1005F00000F0DAFF0023AE4201D0A3685B19A360CC
:1006000009E03200380000F0CFFFAA1BA260B81941
:10061000216800F0C9FFE3685B1BE3602800F8BDB8
:100620000300C068884204D200220100DA609A60A8
:1006300009E09A68401AD8605868521A9A60824253
:1006400001D912189A600800704730B585B0694624
:10065000030031CB31C11B6868460B60FFF79FFF79
:1006600005B030BDF0B585B06D460300C1CBC1C546
:100670001B6868462B60FFF7A9FF05B0F0BD036853
:10068000002B08D08B4204D10B68036000230B6061
:1006900001E01800F3E770470368002B01D01A68E7
:1006A0000260180070470368002B09D05A6894460E
:1006B0004A68944502D90B60016003E01800F2E734
:1006C00001600B60704710B500F058FE00F042FE6C
:1006D000002010BD10B5034B01201B6800F027FB64
:1006E000F9E7C046D80B00201FB500F068FA18499A
:1006F000184800F077FF00F0B1F9174B80211B6814
:100700000F22029300230193144B490000931448D5
:100710000C2300F0A9F8002802DA124800F062FF6A
:10072000114BC0211B6807220293002301930F4B3A
:10073000C90000930E480C2300F096F8002802DA56
:100740000C4800F04FFF0C4800F04CFF00F0BAFAE4
:10075000332800005228000004000020D5060000C5
:10076000D80400207E28000008000020C7060000F2
:10077000D8050020A8280000D2280000431E9BB204
:1007800000221F2B02D8024B8000C2581000704775
:100790005004002010B5FFF7F1FF002802D0808838
:1007A00080B201E00120404210BD10B5FFF7E6FF26
:1007B000002800D0006B10BD10B500F00BFA002827
:1007C0000CD100F0FCF90400054B01211868FFF77B
:1007D00093FD200000F0FBF900F078FA10BDC04650
:1007E0000804002070B5040000F0E9F90D4BA400E6
:1007F000E5580600002D0ED0AC88012C0BD1062147
:100800002800FFF779FD300000F0E1F92889FFF7B3
:10081000A7FD200004E0300000F0D9F9012040429B
:1008200070BDC0465004002010B500F0C8F9084B58
:100830001B689A88052A05D91B89064A9B00995886
:100840000968995000F0C3F900F040FA10BDC046A5
:10085000080400201004002003001A689A4201D105
:100860000433FAE7181A7047F0B587B00600029112
:10087000059203930F2A2BD803230340191E029BD2
:1008800004D00422531A029AC618D31A0322383B02
:1008900093430493F418039B1B0705D53300A3422D
:1008A00003D21B600433FAE7367000F088F90123A5
:1008B0000700284A99B2019199005558002D09D096
:1008C0000133212BF6D1380000F081F922483DE0B8
:1008D00022483BE06B469B888C500C983200E380AA
:1008E0000D99049B00F07AF9029BE66263630E9B0C
:1008F000012123636B469E8A0123194A5B4263628E
:100900001368206001331360039B2681A580E56096
:1009100025616561A561E5612562A5620B4203D091
:100920002000FFF7E9FC0DE007212000FFF7E4FCC1
:10093000039B5B0706D4380000F049F93000FFF74D
:100940000FFD02E0380000F042F9019800B207B054
:10095000F0BDC0465004002075FF0000EAFF000013
:100960000C04002010B504000100074800F004F951
:10097000064AE4001368013B1360054B1A195068DE
:10098000E358984710BDC046DC0B0020D80B002070
:10099000E80B002010B5FFF77BFD10BDF7B50F0089
:1009A00000920193060000F00AF90500124800F0D9
:1009B000F9F80400431C06D1280000F008F90F489C
:1009C00000F010FE16E00E4AC3009F50D318009AA4
:1009D00001B25A60019B3000002B02D000F0D4F924
:1009E00001E000F0CBF9074A2800136801331360D7
:1009F00000F0EDF82000FEBDDC0B00200729000010
:100A0000E80B0020D80B002070B5040000F0C8F9F6
:100A10000419051EA54203D900F0C2F98542FBD393
:100A200000F0BEF98442FBD870BD000010B5010093
:100A3000084800F08BF9084C0221200000F090F8E3
:100A40002000002100F098F80121200000F094F827
:100A500010BDC04665090000DC0B002010B502483F
:100A6000FFF7E4FF10BDC046006CDC0210B5034880
:100A700000F071F84342584110BDC046DC0B002025
:100A800010B500F08DF910BD10B50023FFF786FFFB
:100A900010BD000013B5041E062C12D900F09AF800
:100AA00000280ED1009001906846FFF7C7FCA01EF9
:100AB0006A460849FFF7E8FF431C06D16846FFF77E
:100AC000E7FC2000FFF7A0FF02E06846FFF7B6FC56
:100AD00013BDC0469509000010B50123FFF75EFF66
:100AE00010BD000070B5040000F069F8050020B2E8
:100AF00000F050F92100084800F03EF80022074BB2
:100B0000E400E250064A28001368013B136000F03D
:100B10005EF8012070BDC046DC0B0020E80B002011
:100B2000D80B00200023400801D00133FBE7180058
:100B3000704700230122104202D140080133FAE736
:100B40001800704703000020002B03D05A1E1340EA
:100B50000130F9E77047006801304342584170475F
:100B60000122002310B552428B4203DC9C0002514B
:100B70000133F9E710BD000070B50E0001318D00A2
:100B800045192A680400531C05D00368581C02D07C
:100B9000034800F027FD23682B60266070BDC04627
:100BA0001829000003000068421C411C02D091007B
:100BB000C9581960012192004942D1507047EFF3A2
:100BC000108072B6704762B6EFF31080704780F302
:100BD00010887047EFF30580C0B27047D318032226
:100BE00093431F4A10B51C1F2260620703D0083BC5
:100BF0001C001C4B23608022231F52041A601A4AD7
:100C0000043B1860043B1A600022043B1A60043B5A
:100C100003321A60043B013A1A60043B013A1A603D
:100C2000043B19600632043B1A60043B013A1A6027
:100C3000043B013A1A60043B013A1A60043B073254
:100C40001A60043B013A1A60043B013A1A60043B03
:100C5000013A1A602000032344385B42036010BD50
:100C60007777777788888888910300000E4B70B576
:100C70001B680E481C680E4B0025198809B200F04D
:100C8000B1FC0C4800F0AEFC226821000A48043494
:100C900000F0A8FC094B226801359A42F4D12900E2
:100CA000074800F09FFC70BD080400206829000080
:100CB0000404002091290000A829000077777777A5
:100CC000BC290000FFF77FFF01DFFEE78021034A18
:100CD000490553680B4353607047C04600ED00E080
:100CE000EFF30980EC4685464046494652465B464E
:100CF000FFB4704601B46846E5460B4909680860D0
:100D0000FFF7D0FAEE46084800680068854601BC47
:100D10008446FFBC8046894692469B46684680F3DF
:100D20000988F5466047000008040020704700204D
:100D300070470020704770477047704710B5024BEE
:100D400000B21B68984710BDF80B0020012110B5B8
:100D5000034B044A1860080000F0F0F910BDC046CB
:100D6000F80B00203D0D000010B5012000F0D8F96F
:100D700010BD10B5012000F04BFA10BD10B50200F7
:100D8000012000F0A1F910BD10B50200012000F013
:100D900005F910BD10B50100012000F03FF910BDAC
:100DA00010B5012000F070F910BD704770470000C9
:100DB000002802D1024B89B2198501207047C04634
:100DC00000080042002806D1044A137E5B07FCD5C8
:100DD000024B1B8D0B7001207047C046000800427B
:100DE000002806D1044A137EDB07FCD5024B89B2EA
:100DF000198501207047C046000800420449CB69AC
:100E0000034A002BFBD1022113680B431360704788
:100E100000080042F8B5061E3ED10420214A136A9C
:100E200003431362204B214A5A805A78D209FCD1DD
:100E300010231F481F4C8360237802321343237012
:100E40001D4B1E4C8362236893432360E3691B4D53
:100E50009B07FBD41A4800F02BFB1A4B0A212B608E
:100E6000070000F069FB0723AA8919404B03D1044E
:100E7000C90C1943A98138000A2100F019FBAA897D
:100E8000C004C30C500B40031843C0239B02A8812D
:100E90006B60E3695B07FCD43000FFF7AFFF002015
:100EA000F8BDC04600040040000C004014400000A3
:100EB0000044004145440041300001530008004215
:100EC00080C3C9010420104070B5040016001D0045
:100ED000FFF7A0FF00281BD10C2363430D4A9E504F
:100EE000D318049A5D609A60002C11D1C2210A4A7D
:100EF00089005458094B23408024E4012343535074
:100F0000802304219B001360054A937D0B43937556
:100F100070BDC046FC0B002000E100E0FF00FFFFB9
:100F2000000800420449CB69034A002BFBD102218F
:100F300013688B43136070470008004210B5144CCF
:100F4000237E5B0706D5134B218D1A68C9B29868BA
:100F5000904716E0237E9B070BD50E4B5A68986886
:100F6000904700280DD1237E9B070AD5237E0222BD
:100F700005E0237EDB0904D08022237E5242134306
:100F80002376054B1B68002B01D0FFF74DFC10BDED
:100F900000080042FC0B00200004002010B50028CF
:100FA00002D0012818D031E0002909D001292DD123
:100FB0002024184B92B2987B204398735A8320E0E8
:100FC0001020144B92B2997B014399731A835A7B78
:100FD00002435A730F381BE0002908D0012915D1AC
:100FE00020240D4B987B20439873DA6109E010248C
:100FF000094B997B214399739A615A7B22435A7317
:1010000006E05A7B080022435A7301E00120404267
:1010100010BDC046002C00420030004210B5002830
:1010200002D0012810D027E0002903D0012923D1C4
:10103000134B18E01020124B997B014399731A7BD4
:1010400002431A730F3819E0002903D0012913D184
:101050000C4B08E010240B4B997B214399731A7BAE
:1010600022431A730AE02024987B204398731A7B4A
:10107000080022431A7301E00120404210BDC0461F
:10108000002C004200300042002805D0012813D176
:101090000A4B0B4A5A8009E00A4B094A5A80DA7B0C
:1010A000D209FCD1074B188A80B206E0DA7BD2095C
:1010B000FCD1024B186900E000207047003000426C
:1010C0001080FFFF002C004270B505000E001400D8
:1010D000FFF7DAFF310002192800FFF75FFF70BD4C
:1010E000002803D0012806D1034A00E0034A022168
:1010F00013888B431380704700300042002C00425D
:10110000002803D0012806D1034A00E0034A022147
:1011100013880B431380704700300042002C0042BC
:10112000002804D0012806D18022120301E0802289
:10113000D202014B1A60704700E100E070B5040074
:10114000012951D12A4B2B4959805978C909FCD121
:101150002948274948805878C009FCD1002C02D082
:10116000012C17D040E0254920000B889B073DD477
:10117000802523482D01036A2B43036201200B883D
:1011800003430B8008881D4BC007FBD40C20198833
:10119000814315E01B490B889B0727D480251848FD
:1011A0006D01036A2B4303620B8823430B8008887D
:1011B000144BC007FBD40C20198881430438014329
:1011C00019801888104901406020198019888143CE
:1011D00019800E4BA100CA502000FFF7A1FF20008C
:1011E000FFF78EFF002001E00120404270BDC046A5
:1011F000000C00401B4100001C410000002C00427C
:101200000004004000300042FFF8FFFF080C0020FF
:10121000002804D0012806D18022120301E0802298
:10122000D202014BDA67704704E100E0002806D0E3
:10123000012809D1054A13881843108004E00121D0
:10124000034A13880B4313807047C04600300042A6
:10125000002C004210B5164B997B1A00C9060DD51B
:10126000597BC9060AD5134A1168002918D01020E5
:101270009A7B02439A731873002010E0927B0C4B08
:1012800092060DD55A7B92060AD50A4A11680029A2
:1012900006D020209A7B02439A7318731F38884720
:1012A000054B1B68002B01D0FFF7BEFA10BDC046EE
:1012B000002C0042080C00200004002010B5164B42
:1012C000997B1A00C9060DD5597BC9060AD5134A60
:1012D0005168002918D010209A7B02439A73187322
:1012E000002010E0927B0C4B92060DD55A7B9206A3
:1012F0000AD50A4A5168002906D020209A7B024369
:101300009A7318731F388847054B1B68002B01D050
:10131000FFF78AFA10BDC04600300042080C0020DA
:101320000004002010B500F02BF880220421044BAB
:1013300012039A609A6153331A788A431A7010BD67
:101340000044004110B5024800F04CF910BDC04601
:10135000D929000010B5064C0648216800F042F972
:10136000236898470100044800F03CF9002010BDB4
:1013700040030020DF290000F5290000704700002D
:1013800010B50224274A1378A343137000F060F8C5
:101390000E221021244B25489A619A690A439A61CA
:1013A0004268224342609A698A439A61204B214AEB
:1013B000196A0A4080211A621A6A8A431A621A6AF2
:1013C00040398A431A621A6A22431A620822D9688B
:1013D0001142FCD00121184A11705078164940B2D0
:1013E0000028FADB15488860154848601548488091
:1013F0005178114849B20029FADB2F2199640F393D
:10140000D964114B1E391970104B1B7880235B0077
:10141000836084235B02436053785BB2002BFBDB69
:1014200010BDC046001000400004004000400041D4
:1014300000080040FFFCFFFF000C00400108000016
:10144000010601000141000044080040500800402E
:10145000144A154B116AF0B50B40C02109040B4327
:1014600080211362D369C9051B021B0A0B43C024E8
:10147000D36103270022FF26A40093080B499B0099
:101480005B18110035003940C9008D4018590132F0
:10149000A8438446402088406146014319511C2AD4
:1014A000EBD1F0BD00ED00E0FFFF00FF00E100E048
:1014B000002934D00123002210B488422CD3012407
:1014C0002407A14204D2814202D209011B01F8E79C
:1014D000E400A14204D2814202D249005B00F8E755
:1014E000884201D3401A1A434C08A04202D3001B81
:1014F0005C0822438C08A04202D3001B9C082243B4
:10150000CC08A04202D3001BDC082243002803D0F1
:101510001B0901D00909E3E7101C10BC7047002823
:1015200001D00020C04307B4024802A14018029035
:1015300003BDC046190000000029F0D003B5FFF735
:10154000B9FF0EBC4243891A1847C0467047C046CF
:10155000014B18687047C046A40300200E4B70B5BD
:1015600000251E000D4CE41AA410A54204D0AB00C7
:10157000F35898470135F8E7FEF7A6FD084B00251C
:101580001E00084CE41AA410A54204D0AB00F35886
:1015900098470135F8E770BD982A0000982A0000A6
:1015A000982A0000982A0000002310B59A4203D020
:1015B000CC5CC4540133F9E710BD0EB417B5041E5A
:1015C00004D08369002B01D100F074F806AB059AB2
:1015D000A1682000019300F0CDF91EBC08BC03B047
:1015E000184700000FB40B4B13B51C68002C05D036
:1015F000A369002B02D1200000F05CF805AB049A2F
:10160000A1682000019300F0B5F916BC08BC04B035
:101610001847C046A40300200020704710B50249B7
:1016200000F0F2F810BDC04639220000002310B5CA
:10163000040003604360836081814366C28103616B
:1016400043618361190008225C3000F0FEF8054B0D
:1016500024626362044BA362044BE362044B236382
:1016600010BDC046E51E0000111F0000491F00000C
:10167000751F00000020704770B568254B1E5D4344
:101680000E002900743100F0E9F8041E08D0002192
:101690002A00016046600C30A060683200F0D5F886
:1016A000200070BD10B5024B1868FFF7B7FF10BDE2
:1016B000002A0000836913B50400002B28D183643D
:1016C000C3640365134B144A1B68826201939842FA
:1016D00001D101238361200000F020F86060200028
:1016E00000F01CF8A060200000F018F80022E06074
:1016F00004216068FFF79AFF01220921A068FFF723
:1017000095FF02221221E068FFF790FF0123A361F9
:1017100013BDC046002A00001D160000F8B51D4B81
:1017200006001D68AB69002B02D12800FFF7C2FF3D
:101730004835AC686B68013B05D40C22A75E002FCE
:1017400010D06834F7E72B68002B01D02D68F0E744
:1017500004213000FFF790FF28600028F6D10C2309
:10176000336016E0012320005B42E3810233A38152
:1017700067662760A760676027616761A7615C3063
:101780000822390000F061F820006763A763A764AE
:10179000E764F8BD002A0000704770477047704743
:1017A00010B5034B0349186800F012F810BDC0468D
:1017B000A40300207516000010B5034B03491868F8
:1017C00000F006F810BDC046A40300201916000062
:1017D000F7B54830040000260191002C12D0A5680E
:1017E0006768013F0CD4AB89012B07D90E22AB5E91
:1017F000013303D02800019B984706436835F0E782
:101800002468EAE73000FEBDF7B5040007000026B3
:1018100001914834002C16D06368A5680093009BA2
:10182000013B00930DD4AB89012B08D90E22AB5E8E
:10183000013304D029003800019B984706436835DE
:10184000EDE72468E6E73000FEBD0300821893420E
:1018500002D019700133FAE770470000032370B516
:10186000CD1C9D43083506000C2D01D20C2505E04A
:10187000002D03DA0C230020336040E0A942F9D8A0
:101880001F4B1C681A002100002913D00B685B1B3A
:101890000DD40B2B02D90B60CC181EE08C4202D168
:1018A000636813601AE04B6863600C0016E00C007C
:1018B0004968E9E7134C2368002B03D13000FEF799
:1018C00035FC206029003000FEF730FC431CD1D0ED
:1018D0000323C41C9C43A0420AD125602000072298
:1018E0000B30231D9043C31A09D05A42E25006E040
:1018F000211A3000FEF71AFC431CEED1BAE770BD86
:10190000140C0020100C0020936810B5013B93606C
:10191000002B05DA9469A34208DBCBB20A2B05D071
:101920001368581C10601970C8B201E000F028FB61
:1019300010BDF8B506000F001400D518AC4208D051
:1019400021783A003000FFF7DFFF0134431CF5D166
:1019500000E00020F8BD936810B51400002B02D100
:101960005360180004E000F0A7FC0023A36063604C
:1019700010BD0000F0B59FB006000F000292059365
:10198000002804D08369002B01D1FFF793FE7F4B21
:101990009F4201D1776808E07D4B9F4201D1B76833
:1019A00003E07C4B9F4200D1F768BB891B070AD537
:1019B0003B69002B07D0002306AD6B6120336B76AB
:1019C0001033AB763DE03900300000F03BFB0028DF
:1019D000F1D001204042D6E0059A111D1268059110
:1019E000002A00DA7FE00992013423782E2B00D1FF
:1019F0008DE021780322684800F018FE002807D007
:101A0000654B2A68C01A4023834013432B6001347E
:101A10002178631C062261480293297600F006FEB5
:101A2000002800D19DE05E4B002B00D090E0072203
:101A3000059B07339343083305936B69039A9B18FF
:101A40006B61029C2378002B04D1029BE31A049360
:101A500012D003E0252BF8D00134F3E7049B029A5F
:101A600039003000FFF765FF431C00D186E06A694A
:101A7000049B944663446B612378002B7ED0012243
:101A8000002352426A6002A95432521801342B607A
:101A9000EB60AB601370AB6521780522414800F024
:101AA000C5FD002808D03F4B2A68C01A0123834097
:101AB00013432B600134EFE72B68DA0604D5532279
:101AC000202102A8121811701A0704D553222B21C5
:101AD00002A81218117022782A2A00D17CE7099BEB
:101AE00000200A2105E05242EA60022213432B60E3
:101AF0007AE72278303A092A04D84B4301349B18FC
:101B00000120F6E7002800D16FE709936DE76378BD
:101B10002A2B0AD1059B02341A1D1B680592002B43
:101B200001DA01235B42079363E700230A201A00CE
:101B300001346B6021783039092904D842430134DB
:101B400052180123F6E7002B00D152E7079250E725
:101B500005AB00933A00144B2900300000E000BFB1
:101B600007E005AB00933A000F4B2900300000F06E
:101B700097F80390039B013300D05EE7BB895B06B7
:101B800000D526E70B981FB0F0BDC046042A000020
:101B9000242A0000442A00006A2A00006E2A00005D
:101BA00000000000642A00003319000010B5130083
:101BB0000A00010002480068FFF7DCFE10BDC046C5
:101BC000A4030020F7B5170001938A680B69009001
:101BD0000C00934200DA130022003B60433212787B
:101BE000002A01D001333B6023689B0602D53B6885
:101BF00002333B60062523681D401ED0230043337B
:101C00001B785A1E9341226892061CD53020E11899
:101C10004331087021005A1C45310978A21843321B
:101C2000023311700FE0220001231932019900984C
:101C3000089EB047431C0ED00135E3683A689B1AF2
:101C40009D42F0DBDAE72200019943320098089DBB
:101C5000A847431C02D10120404220E0062320680F
:101C6000E1683A6803400025042B03D18D1AEB4349
:101C7000DB171D40A3682269934201DD9B1AED1812
:101C80000027BD420AD0220001231A320199009890
:101C9000089EB047431CDED00137F2E70020FEBDAE
:101CA000F0B58BB006920A00433207930590049278
:101CB0000A7E0C00109B6E2A00D1ABE011D8632A7B
:101CC00022D009D8002A00D1B5E0582A00D0C5E0BA
:101CD00045310A70814A4FE0642A1DD0692A1BD021
:101CE000BCE0732A00D1AAE009D86F2A29D0702A53
:101CF00000D0B3E0202209680A43226037E0752A49
:101D00001FD0782A33D0A9E00E001A684236111D80
:101D1000196013683370A4E021681A68080606D4B5
:101D2000490604D5111D19600023D55E02E0111D7E
:101D300019601568002D3BDA2D23049A6D4213704B
:101D400036E021681A68080606D4490604D51568E5
:101D5000111D1960ADB202E0111D196015685F4BCD
:101D6000227E039308276F2A1DD00A271BE022003A
:101D70007821453211705A4A19680392081D226869
:101D800018600D68100602D4500600D5ADB2D30716
:101D900002D520231A4322601027002D03D12023CF
:101DA00022689A4322602300002243331A7002E023
:101DB0000A274A4B03936368A360002B09DB0422C4
:101DC000216891432160002D05D1049E002B11D084
:101DD0007BE0002D79D0049E28003900FFF7ACFB92
:101DE000039B013E5B5C280033703900FFF760FB0A
:101DF000051EF1D1082F09D12368DB0706D56368DA
:101E00002269934202DC3023013E3370049B9B1B0A
:101E100023612BE009681A68080607D4490605D52E
:101E2000111D19601368A28A1A8004E0111D19603F
:101E3000136862691A600023049E236116E01A6821
:101E4000111D1960166800216268300000F0EEFB79
:101E5000002801D0801B6060636803E026004236E2
:101E60003270012323610023049A1370079B09AA8F
:101E700000932100069B0598FFF7A4FE431C02D1A6
:101E80000120404227E02369320006990598079D0A
:101E9000A847431CF4D0236800259B070FD4099B57
:101EA000E068984217DA180015E022000123193281
:101EB00006990598079EB047431CE1D00135E368B9
:101EC000099A9B1A9D42F0DBE9E72600039B423604
:101ED0001B7833708EE70BB0F0BDC046752A00004A
:101EE000862A000070B50C000E25495FFEF756F9F2
:101EF000002803DB636D1B18636503E0A289024BB6
:101F00001340A38170BDC046FFEFFFFF0020704764
:101F1000F8B51F008B8905000C001600DB0505D500
:101F20000E23C95E00220223FEF767F9A289054B42
:101F300028001340A38132000E23E15E3B00FEF730
:101F400049F9F8BDFFEFFFFF70B50C000E25495FA2
:101F5000FEF753F9A389421C03D1054A1340A3811C
:101F600004E0802252011343A381606570BDC04626
:101F7000FFEFFFFF10B50E23C95EFEF739F910BD64
:101F8000F8B505000F001400002804D08369002B69
:101F900001D1FFF78FFB234B9C4201D16C6808E015
:101FA000214B9C4201D1AC6803E0204B9C4200D104
:101FB000EC68A369A360A3891B070AD52369002BDA
:101FC00007D023682269FEB2981A636998420FDB32
:101FD00008E02100280000F035F80028F1D00120A9
:101FE00040421DE02100280000F026F90028F6D12B
:101FF000A3680130013BA36023685A1C22601F7054
:102000006369984205D0A3893000DB0708D50A2E02
:1020100006D12100280000F00FF90028DFD13000A0
:10202000F8BDC046042A0000242A0000442A00000B
:1020300010B5034B0A0001001868FFF7A1FF10BD9F
:10204000A4030020354B70B51D6806000C00002D60
:1020500005D0AB69002B02D12800FFF72BFB304BDA
:102060009C4201D16C6808E02E4B9C4201D1AC68C7
:1020700003E02D4B9C4200D1EC68A3899AB2110772
:1020800023D4D10607D4092201203260373213430A
:10209000A381404240E0530713D5616B002908D06B
:1020A00023004433994202D0300000F0DFFA0023CD
:1020B00063632422A3899343A3810023636023697C
:1020C00023600822A3891343A3812369002B0BD12A
:1020D000A023A2899B00134080229200934203D048
:1020E0002100300000F050FA0123A289134005D0EE
:1020F0000023A36063695B42A36103E0910700D4FE
:102100006369A36000202369834205D1130603D5C8
:1021100040231A43A281013870BDC046A4030020A9
:10212000042A0000242A0000442A0000F7B58A8906
:1021300005000C0013075AD44B68002B02DC0B6C13
:10214000002B19DDE76A002F16D000232E682B60C4
:1021500080235B011A4001D0606D14E00123216AE5
:102160002800B847431C0ED12B68002B0BD01D2B29
:1021700001D0162B02D12E6000205AE04022A38904
:102180001343A38155E0A3895B0706D56368C01A92
:10219000636B002B01D0236CC01A00230200216A5C
:1021A0002800E76AB847A389421C06D129681D297F
:1021B0003AD8204ACA40D20736D500226260226946
:1021C0002260DB0405D5431C02D12B68002B00D113
:1021D0006065616B2E600029CED0230044339942A4
:1021E00002D0280000F042FA0020606321E00F696D
:1021F000002FC1D00B680F60DB1B019300239207F7
:1022000000D14B69A36003E0019B3F181B1A0193A7
:10221000019B002BB0DD019B3A00216A2800A66AD1
:10222000B0470028F0DCA389402201201343A3819A
:102230004042FEBD010040200B6970B505000C0056
:10224000002B01D100201CE0002804D08369002B62
:1022500001D1FFF72FFA0B4B9C4201D16C6808E0CB
:10226000094B9C4201D1AC6803E0084B9C4200D171
:10227000EC680C22A35E002BE4D021002800FFF7BD
:1022800055FF70BD042A0000242A0000442A0000E3
:1022900010B5011E05D1054B05491868FFF7B4FAC2
:1022A00003E0044B1868FFF7C7FF10BD002A0000C9
:1022B00039220000A4030020F0B5936887B0029093
:1022C0000C001700002B01D1002054E18B891B0763
:1022D0000CD50B69002B09D002253B68A28901931C
:1022E000154029D0002300931D001BE02100029817
:1022F000FFF7A8FE0028EFD03BE1A04A2B1E934237
:1023000000D91300009A216A0298A66AB0470028F3
:1023100000DC2AE1009B2D1A1B180093BB68181AD9
:10232000B860D1D0002DE8D1019B1B680093019BC0
:102330005D6808330193F5E70123134003D0059549
:1023400000950395D2E003930093009B002B09D1E5
:10235000019B1B680393019B5B680093019B0833FF
:102360000193F2E78023A2899B00A5681A4255D009
:10237000009BAB4244D39023DB001A423DD003269E
:102380002169236800985B1A049363695E43F30F25
:102390009E19049B761001331B18B34200D91E000E
:1023A000530510D531000298FFF758FA051E18D0D2
:1023B000049A2169FFF7F8F8A289714B1340802233
:1023C0001343A38111E03200029800F095F9051E35
:1023D0000BD12169029800F049F98022A389934327
:1023E000A3810C23029A1360BFE0049B2561ED18C2
:1023F00025606661009DF61AA660009BAB4200D284
:10240000009D2A000399206800F01BF9A3685B1B5C
:10241000A36023685D192560009D2FE02068236973
:10242000984203D86669009BB34216D2009B9D4236
:1024300000D91D002A00039900F003F9A36822685F
:102440005B1B5219A3602260002B17D12100029858
:10245000FFF7F2FE002811D087E00098494B984220
:1024600000D91800310000F079F93300A56A434320
:10247000039A216A0298A847051E76DD039B5B1923
:102480000393009B5B1B0093BB685D1BBD6000D08A
:102490005BE719E7059B002B37D0039B04959D4212
:1024A00000D9049320682269636990423DD9A268EB
:1024B0009E18049AB24238DD0099320000F0C1F84B
:1024C000236821009B1923600298FFF7B5FE0028BE
:1024D0004BD1AD1B41D0009B9B190093039B9B1BD1
:1024E0000393BB689E1BBE6000D1EDE6039B002BEF
:1024F000D0D1019B1B680093019B5B680393019BF8
:102500000833019300230593F0E7039A0A2100980A
:1025100000F08CF8002803D0009B0130C51A01E0C0
:10252000039B5D1C01230593B7E7049A9A4207DBDE
:10253000A66A009A216A0298B047061EC9DC14E018
:10254000049A009900F07DF8049AA36816009B1A7B
:10255000A36023689B182360BBE721000298FFF764
:102560006BFE002801D10595B5E74022A3891343EE
:10257000A3810120404207B0F0BDC04600FCFF7FB0
:102580007FFBFFFFFFFFFF7FF0B58B8991B0060057
:102590000C009B0726D40E23C95E002904DA802391
:1025A000A5891D4010D10CE001AAFDF72BFE0028E3
:1025B000F5DBF023029D1B021D401A4BED186B4208
:1025C0005D418027FF0001E00025402739003000F1
:1025D000FFF744F900280CD1A3899A051FD40222E1
:1025E0001343A381230047332360236101236361E5
:1025F00015E080220C4BB362A38920601343A381B2
:1026000020616761002D0AD00E23E15E3000FDF7E6
:1026100003FE002803D00122A3891343A38111B034
:10262000F0BDC04600E0FFFF1D160000C9B28218D1
:10263000904204D003788B4202D00130F8E70020AA
:10264000704710B5884202D98B18984201D30023F5
:1026500005E09B1A013A08D3995C8154FAE793424A
:1026600003D0CC5CC4540133F9E710BD30B5002968
:102670003ED004390B68002B00DAC9181D4A1368D4
:102680001400002B02D14B60116031E08B420DD958
:102690000A688818834203D118685B6882180A6048
:1026A0004B60216024E08A4203D813005A68002A54
:1026B000F9D11D685C198C420BD10968691858184A
:1026C0001960824214D110685268411819605A602A
:1026D0000EE08C4202D90C23036009E008680C1854
:1026E000A24203D114685268201808604A605960F9
:1026F00030BDC046140C0020F8B506000C001500D3
:10270000002904D11100FFF7A9F8040018E0002AFD
:1027100003D1FFF7ABFF2C0012E000F013F8854265
:102720000ED929003000FFF799F8071E07D02100C5
:102730002A00FEF739FF21003000FFF797FF3C0029
:102740002000F8BD0B1F1A68101F002A04DA891830
:1027500004390B68D018043870470000002941D0B4
:1027600010B4041C4C40A44601230022002900D5CB
:102770004942002800D5404288422CD30124240736
:10278000A14204D2814202D209011B01F8E7E40010
:10279000A14204D2814202D249005B00F8E788429C
:1027A00001D3401A1A434C08A04202D3001B5C0814
:1027B00022438C08A04202D3001B9C082243CC0871
:1027C000A04202D3001BDC082243002803D01B09CF
:1027D00001D00909E3E7101C6446002C00D54042F3
:1027E00010BC7047002806D003DB0020C04340081F
:1027F00001E08020000607B4024802A140180290C0
:1028000003BDC04649EDFFFF0029EBD003B5FFF73C
:10281000A7FF0EBC4243891A1847C04623212065F2
:102820007869742025693A20726573657474696EDD
:10283000670A00323031332E30382D353830382D9C
:1028400067613366312D646863707063302D6C6529
:1028500064006B65726E656C5F696E697428293AF5
:1028600020546869732069732052494F54212028ED
:1028700056657273696F6E3A202573290A006B657D
:10288000726E656C5F696E697428293A2065727290
:102890006F72206372656174696E672069646C652C
:1028A000207461736B2E0A006B65726E656C5F69D4
:1028B0006E697428293A206572726F72206372659E
:1028C0006174696E67206D61696E207461736B2E2F
:1028D0000A006B65726E656C5F696E697428293ACF
:1028E000206A756D70696E6720696E746F20666905
:1028F000727374207461736B2E2E2E0A0069646CDF
:1029000065006D61696E004E6F20687774696D6552
:1029100072206C6566742E006C69666F5F696E73F9
:102920006572743A206F76657277726974696E6742
:102930002061727261795B25695D203D3D202569CA
:1029400020776974682025690A0A0A0909546865AC
:10295000206C69666F2069732062726F6B656E20F0
:102960006E6F772E0A0A0A007072696E74696E675C
:10297000207468652063757272656E74207374616B
:10298000636B206F66207468726561642025690A34
:10299000002020616464726573733A202020202037
:1029A00020646174613A0A0020203078253038783C
:1029B0003A2020203078253038780A00637572720A
:1029C000656E7420737461636B2073697A653A2055
:1029D000256920627974650A00746573740A004A77
:1029E000756D70696E6720746F2030782530387887
:1029F0002E2E2E0A007265733D25690A00430000E1
:102A0000440300200000000000000000000000005F
:102A100000000000000000000000000000000000B6
:102A200000000000000000000000000000000000A6
:102A30000000000000000000000000000000000096
:102A40000000000000000000000000000000000086
:102A50000000000000000000000000000000000076
:102A600000000000232D302B2000686C4C006566B0
:102A700067454647003031323334353637383941CF
:102A800042434445460030313233343536373839E5
:082A90006162636465660000E9
:102A98001C0E0020FD280000022900003003000061
:102AA8007F454C46010101000000000000000000C5
:102AB800020028000100000054000000340000005B
:102AC8005001000002020005340020000100280027
:102AD8000C000B00010000000000000000000000D6
:102AE80000000000940000009C00000007000000A7
:102AF800000001000120044B044A7B449A581060EE
:102B0800034A9B581860704722000000000000002C
:102B180004000000EFBEADDE40000000EFBEADDEF9
:102B28009800000094000000000000000000000071
:102B3800000000004743433A20284172636820524E
:102B480065706F7369746F72792920352E312E3054
:102B580000413100000061656162690001270000E1
:102B68000005436F727465782D4D302B00060C07F5
:102B78004D09011204140115011703180119011A4E
:102B8800011E04002E7368737472746162002E74DF
:102B98006578742E74657374002E646174612E797F
:102BA800002E646174612E61002E646174612E616F
:102BB8006C7068615F62657461002E676F74002EC7
:102BC800676F742E706C74002E6273732E6B002EF8
:102BD8006273732E78002E636F6D6D656E74002EB0
:102BE80041524D2E61747472696275746573000088
:102BF80000000000000000000000000000000000CD
:102C080000000000000000000000000000000000BC
:102C180000000000000000000B00000001000000A0
:102C280006000000540000005400000020000000CE
:102C38000000000000000000040000000000000088
:102C480016000000010000000300000074000000EE
:102C580074000000040000000000000000000000F4
:102C680004000000000000001E0000000100000039
:102C78000300000078000000780000000400000055
:102C88000000000000000000040000000000000038
:102C98002600000001000000030000007C00000086
:102CA8007C0000000400000000000000000000009C
:102CB80004000000000000003700000001000000D0
:102CC80003000000800000008000000008000000F1
:102CD80000000000000000000400000000000000E8
:102CE8003C00000001000000030000008800000014
:102CF800880000000C000000000000000000000038
:102D08000400000004000000450000000800000066
:102D1800030000009400000094000000040000007C
:102D28000000000000000000040000000000000097
:102D38004C0000000800000003000000980000009C
:102D480094000000040000000000000000000000E3
:102D58000400000000000000530000000100000013
:102D68003000000000000000940000001D0000007A
:102D78000000000000000000010000000100000049
:102D88005C0000000300007000000000000000006C
:102D9800B100000032000000000000000000000048
:102DA8000100000000000000010000000300000016
:102DB8000000000000000000E30000006C000000BC
:102DC80000000000000000000100000000000000FA
:102DD8006500002000000000042A0000242A0000EA
:102DE800442A00000000000000000000000000006D
:102DF80000000000FD2900000000000000000000A5
:102E080000000000000000000000000000000000BA
:102E180000000000000000000000000000000000AA
:102E2800000000000000000000000000000000009A
:082E380000000000440300202B
:00000001FF
