:10000000200E0020FD0300006504000075040000C0
:1000100000000000000000000000000000000000E0
:10002000000000000000000000000000CD03000000
:100030000000000000000000AD03000057010000B8
:100040005701000057010000570100005701000050
:100050005701000057010000570100005701000040
:1000600057010000110C000057010000570100006B
:100070005701000057010000570100005701000020
:100080005701000057010000810D0000E90D00003C
:100090005701000057010000570100005701000000
:1000A00057010000570100005701000057010000F0
:1000B00010B500F0FBF910BD70B50D00060000F0A2
:1000C00010F90E4B1C681A006319002D05DD0C4950
:1000D000994209D39C420CD906E0002D09D0094968
:1000E000994201D89C4204D20C230124336064421B
:1000F00000E0136000F0FDF8200070BD000000205B
:1001000000800020200E00201323036001204042C5
:10011000704710B51900100000F0E4F910BD10B5DB
:100120001900100000F0FAF910BD1323036001203C
:10013000404270471323036001204042704713235D
:100140000360012040427047002302220360180030
:100150008A425841704710B500F094F910BD000074
:1001600070B500240E4B0F4E1C600F4B356818689D
:1001700000F0AEF80D4B8000C35820000C3B9D42B0
:100180000DD0A54204D0AA88062A01D10132AA8046
:10019000062201209A80D988054A3360118070BDFB
:1001A000A4030020AC03002078040020B403002046
:1001B000A803002070B504000D008388052910D91C
:1001C000052B24D821000089124B800018180C310F
:1001D00000F05AF8012321890F4A8B4011680B4324
:1001E00014E0052B13D9210000890A4E80000C3140
:1001F000301800F05FF821898B009B59002B06D145
:1002000001338B40044A116899430B001360A580A9
:1002100070BDC046B40300207804002010B5094B1F
:100220001B689A88052A02D91B89834209D900F0E4
:1002300063F8002803D00122034B1A6001E000F0AC
:10024000ABF810BDAC030020A403002070B500245F
:1002500000F047F8084B094A1B88094D1BB29B0068
:100260009C50084A210013682868013B1360FFF77F
:10027000A1FF2C6000F08CF8A8030020F4030020FC
:10028000AC030020B00300200368002B0ED00B60ED
:1002900003685B684B6003685B68196003685960BA
:1002A00003685A68934204D1596002E00160096012
:1002B000496070470B68994207D04A6813600B6821
:1002C0005A600268914202D100E000230360704747
:1002D00000230122104202D140080133FAE718003E
:1002E0007047EFF3108072B6704762B6EFF310807C
:1002F000704780F310887047EFF30580C0B27047F5
:10030000D318032293431F4A10B51C1F22606207B3
:1003100003D0083B1C001C4B23608022231F520487
:100320001A601A4A043B1860043B1A600022043B1E
:100330001A60043B03321A60043B013A1A60043B22
:10034000013A1A60043B19600632043B1A60043B10
:10035000013A1A60043B013A1A60043B013A1A6000
:10036000043B07321A60043B013A1A60043B013A2D
:100370001A60043B013A1A602000032344385B42B0
:10038000036010BD77777777888888884D020000F2
:10039000FFF7ABFF01DFFEE78021034A4905536801
:1003A0000B4353607047C04600ED00E0EFF3098057
:1003B000EC4685464046494652465B46FFB4704689
:1003C00001B46846E5460B4909680860FFF7C8FEB6
:1003D000EE46084800680068854601BC8446FFBCBC
:1003E0008046894692469B46684680F30988F546D2
:1003F00060470000AC0300207047704770B5FFF7FE
:10040000FBFF6A46104B11499A4201D902C3FBE730
:1004100000230F480F49104C1A188A4203D2E5589E
:1004200004331560F8E700210C4B0D4A934201D2CA
:1004300002C3FBE7FFF7E1FF00F07EF801F034FABA
:1004400000F0BAF970BDC046200C0020FEE7FEE7C0
:1004500000000020A4030020B42B0000A40300200F
:10046000200C002010B50249002000F075F8C046AD
:10047000D625000010B50249012000F06DF8C046F5
:10048000E225000010B50249022000F065F8C046E0
:10049000F525000010B5034800F019F9024800F0F6
:1004A000E9F810BDC4040020BC04002007B50948C9
:1004B00000F0B6F8084B094A00201A60E1214022FA
:1004C00098605A60D860064A00900300490200F024
:1004D00071FB07BDBC040020C40400207C04002084
:1004E0009504000070B506000A480C0000F098F86A
:1004F000FFF7F7FE05000848C268A24200D92200B3
:10050000310000F007F904002800FFF7F2FE200098
:1005100070BDC046BC040020C404002070B50D00AE
:1005200004004618B44205D02178002000F0CEFA2D
:100530000134F7E7280070BD10B500F045FA8022BD
:100540000421044B12039A609A6153331A788A4348
:100550001A7010BD004400410A4B10B51A680C0017
:10056000002A0AD1013208481A6001F053FB20002A
:1005700001F050FB054801F04DFBFFF7B2FE00F023
:100580001DFAC046D40400200326000019260000EE
:1005900010B504000100074800F064F9064AE400C1
:1005A0001368013B1360054B1A195068E3589847CC
:1005B00010BDC046D8040020F40B0020E404002045
:1005C00010B50100084800F073FA084C0221200021
:1005D00000F03CF92000002100F044F90121200046
:1005E00000F040F910BDC04691050000D80400207D
:1005F00010B50248FFF7E4FF10BDC046006CDC02F6
:1006000010B504002168002907D10122200000F064
:100610004CF80028F6D0012000E0002010BD0000BA
:10062000F0B585B00400FFF7EBFF00281ED1FFF7FF
:1006300058FE05002000FFF7E3FF061E03D0280048
:10064000FFF757FE12E00A4F02213868FFF7B2FDAC
:100650003B68201D1A8901A902920393019600F0BC
:100660008AF82800FFF745FEFFF796FE05B0F0BDBB
:10067000AC03002070B50400FFF733FE23680500CB
:10068000002B0ED0201D00F06FF8002808D08468E1
:1006900007212000FFF78EFD2089FFF7BFFD00E056
:1006A00020602800FFF725FE70BD70B504000E0025
:1006B0001500FFF716FE2368B34203D0FFF719FEBB
:1006C000002003E02560FFF714FE012070BD30B567
:1006D0004268C468030094420ED182680068651EB7
:1006E000805CDD60002D02D100229A6006E00132BC
:1006F0009A60944202D1F7E701204042DA68541C24
:10070000DC609C68A2185C68A24200D3121B1B68C4
:10071000995430BDF8B5C56804000F00954200D962
:100720001500002D1ED0A16863685E1A2368591851
:10073000AE420AD32A00380001F042F90023AE424B
:1007400001D0A3685B19A36009E03200380001F012
:1007500037F9AA1BA260B819216801F031F9E368E2
:100760005B1BE3602800F8BD0368002B01D01A680A
:100770000260180070470368002B09D05A6894463D
:100780004A68944502D90B60016003E01800F2E763
:1007900001600B60704710B500F092FC00F07AFC2D
:1007A000002010BD10B5034B01201B6800F076F946
:1007B000F9E7C046F40B00201FB5FFF792FD18497A
:1007C000184801F0ABF9FFF713FF174B80211B68A6
:1007D0000F22029300230193144B49000093144805
:1007E0000C2300F06DF8002802DA124801F096F9A7
:1007F000114BC0211B6807220293002301930F4B6A
:10080000C90000930E480C2300F05AF8002802DAC1
:100810000C4801F083F90C4801F080F9FFF7B8FDAE
:10082000262600005326000004000020A507000033
:10083000F40400207F260000080000209707000035
:10084000F4050020A9260000D32600000122002381
:1008500010B552428B4203DC9C0002510133F9E790
:1008600010BD000070B50E0001318D0045192A68D9
:100870000400531C05D00368581C02D0034801F043
:100880004DF923682B60266070BDC0460827000024
:1008900010B5FFF726FD084B1B689A88052A05D975
:1008A0001B89064A9B00995809689950FFF721FD5A
:1008B000FFF772FD10BDC046AC030020B40300205A
:1008C000F0B587B006000291059203930F2A2BD84A
:1008D00003230340191E029B04D00422531A029AD8
:1008E000C618D31A0322383B93430493F418039B8E
:1008F0001B0705D53300A34203D21B600433FAE77C
:100900003660FFF7EEFC01230700284A99B20191F7
:1009100099005558002D09D00133212BF6D138000C
:10092000FFF7E7FC22483DE022483BE06B469B880E
:100930008C500C983200E3800D99049BFFF7E0FC8B
:10094000029BE66263630E9B012123636B469E8AD2
:100950000123194A5B42636213682060013313600C
:10096000039B2681A580E56025616561A561E56140
:100970002562A5620B4203D02000FFF71BFC0DE0AF
:1009800007212000FFF716FC039B5B0706D4380005
:10099000FFF7AFFC3000FFF741FC02E03800FFF743
:1009A000A8FC019800B207B0F0BDC046F4030020D7
:1009B00075FF0000EAFF0000B003002010B500BE84
:1009C000042000F06BF8FBE710B50224284A1378E6
:1009D000A343137000F076FB0E231021254A26480E
:1009E000936193690B439361436823434360936925
:1009F0008B439361214B224A196A0A4080211A6273
:100A00001A6A8A431A621A6A40398A431A621A6A4F
:100A100022431A620822D9681142FCD00121194AE6
:100A200011705078174940B20028FADB16488860E8
:100A30001648486016484880517849B20029FBDBC7
:100A40002F2199640F39D964124B1E391970032371
:100A5000114801781942FCD080235B009360842305
:100A60005B02536053785BB2002BFBDB10BDC046CA
:100A70000010004000040040004000410008004019
:100A8000FFFCFFFF000C0040010800000106010010
:100A90000141000044080040500800400020704719
:100AA00010B5024B00B21B68984710BDF80B002030
:100AB000012110B5034B044A1860080000F0F6F855
:100AC00010BDC046F80B0020A10A0000002806D186
:100AD000044A137EDB07FCD5024B89B2198501203D
:100AE0007047C046000800420449CB69034A002B06
:100AF000FBD1022113680B431360704700080042CA
:100B0000F8B5061E3ED10420214A136A034313623E
:100B1000204B214A5A805A78D209FCD110231F4811
:100B20001F4C836023780232134323701D4B1E4CED
:100B30008362236893432360E3691B4D9B07FBD4C7
:100B40001A4800F0EFFA1A4B0A212B60070000F058
:100B50002DFB0723AA8919404B03D104C90C194363
:100B6000A98138000A2100F0DDFAAA89C004C30C6B
:100B7000500B40031843C0239B02A8816B60E369BC
:100B80005B07FCD43000FFF7AFFF0020F8BDC04684
:100B900000040040000C00401440000000440041EC
:100BA00045440041300001530008004280C3C901A0
:100BB0000420104070B5040016001D00FFF7A0FFD0
:100BC00000281BD10C2363430D4A9E50D318049A6E
:100BD0005D609A60002C11D1C2210A4A89005458E4
:100BE000094B23408024E4012343535080230421F4
:100BF0009B001360054A937D0B43937570BDC046FF
:100C0000FC0B002000E100E0FF00FFFF00080042B5
:100C100010B5144C237E5B0706D5134B218D1A6843
:100C2000C9B29868904716E0237E9B070BD50E4B00
:100C30005A689868904700280DD1237E9B070AD5F3
:100C4000237E022205E0237EDB0904D08022237E5E
:100C5000524213432376054B1B68002B01D0FFF74C
:100C600017FE10BD00080042FC0B0020A40300206A
:100C7000002803D0012806D1034A00E0034A0221DC
:100C800013880B431380704700300042002C004251
:100C9000002804D0012806D18022120301E080221E
:100CA000D202014B1A60704700E100E070B5040009
:100CB000012951D12A4B2B4959805978C909FCD1B6
:100CC0002948274948805878C009FCD1002C02D017
:100CD000012C17D040E0254920000B889B073DD40C
:100CE000802523482D01036A2B43036201200B88D2
:100CF00003430B8008881D4BC007FBD40C201988C8
:100D0000814315E01B490B889B0727D48025184891
:100D10006D01036A2B4303620B8823430B80088811
:100D2000144BC007FBD40C201988814304380143BD
:100D30001980188810490140602019801988814362
:100D400019800E4BA100CA502000FFF7A1FF200020
:100D5000FFF78EFF002001E00120404270BDC04639
:100D6000000C00401B4100001C410000002C004210
:100D70000004004000300042FFF8FFFF080C002094
:100D800010B5164B997B1A00C9060DD5597BC906BB
:100D90000AD5134A1168002918D010209A7B024303
:100DA0009A731873002010E0927B0C4B92060DD5BD
:100DB0005A7B92060AD50A4A1168002906D02020DB
:100DC0009A7B02439A7318731F388847054B1B6838
:100DD000002B01D0FFF75CFD10BDC046002C004287
:100DE000080C0020A403002010B5164B997B1A00B4
:100DF000C9060DD5597BC9060AD5134A5168002981
:100E000018D010209A7B02439A731873002010E0C8
:100E1000927B0C4B92060DD55A7B92060AD50A4A54
:100E20005168002906D020209A7B02439A731873D8
:100E30001F388847054B1B68002B01D0FFF728FDA2
:100E400010BDC04600300042080C0020A403002062
:100E500010B5002801D10B4808E00B4B984201D196
:100E60000A4803E00A4B984203D10A4800F056FEB4
:100E700006E0094B80001B68C158084800F04EFE90
:100E800010BDC04658270000F2FF00006F27000089
:100E9000F1FF000094270000100C0020AE27000096
:100EA00010B5024800F03AFE10BDC0460C29000003
:100EB00084B0F0B504009BB021912292239321A825
:100EC000C68D2E99299D714300224919200000F0FA
:100ED00009FC23002822012106A800F0F3FB0C9B4B
:100EE00000221900714320004919019300F0FAFB18
:100EF00023002822012110A800F0E4FB159800F03F
:100F00004BFD060000221499200000F0EBFB2300AB
:100F1000159A0121300000F0D5FB00220A9920002B
:100F200000F0E0FB0B9B22481B09019300F0F6FD4B
:100F3000204800F0F3FD0025019B9D422CDA2300A0
:100F40001022012102A800F0BDFB0F2202AB1B7B87
:100F50001340012B1ED1029B2F98F11800F04CFF7B
:100F6000071E03D1144800F0D9FD1BE00F2102AB8E
:100F70001B7B029A0B40B218291E1048092900DD7C
:100F80000F4800F0CBFD02ABD889FFF761FF0D4899
:100F900000F0C4FD0135CFE7FFF782FF300000F01D
:100FA00005FD012738001BB0F0BC08BC04B0184791
:100FB00060290000312A0000572A0000612A000041
:100FC0006F2A000056270000F0B52C49A5B02C4828
:100FD00000F014FB051E04D12A4800F09FFD0120FB
:100FE0004AE017AC030034220121200000F06AFB24
:100FF000208E0026800000F0CFFC234B1860238E4B
:101000009E4225DAE18D236A71430022C918280027
:1010100000F068FB2B00282201210DA800F052FBF4
:101020000E9B022B12D16A46184B0A960B931AABF1
:1010300083CB83C283CB83C283CB83C21B6828004C
:10104000136021686268A368FFF732FF0136D6E7B4
:1010500000240F4B1A680C4B944206DA1B68A2005E
:10106000D05800F0A3FC0134F3E7186800F09EFCB0
:10107000280000F0FFF8002025B0F0BD7D2A000018
:10108000802A00009F2A0000100C0020C02A0000C7
:10109000140C002010B5FFF797FF064C0648216896
:1010A00000F03CFD236898470100044800F036FD3D
:1010B000002010BD3C030020D22A0000E82A0000D6
:1010C00070470000144A154B116AF0B50B40C0215F
:1010D00009040B4380211362D369C9051B021B0A53
:1010E0000B43C024D36103270022FF26A4009308EA
:1010F0000B499B005B18110035003940C9008D4039
:1011000018590132A8438446402088406146014373
:1011100019511C2AEBD1F0BD00ED00E0FFFF00FFEC
:1011200000E100E0002934D00123002210B48842FD
:101130002CD301242407A14204D2814202D2090106
:101140001B01F8E7E400A14204D2814202D2490027
:101150005B00F8E7884201D3401A1A434C08A042CA
:1011600002D3001B5C0822438C08A04202D3001B60
:101170009C082243CC08A04202D3001BDC08224377
:10118000002803D01B0901D00909E3E7101C10BC9B
:101190007047002801D00020C04307B4024802A1D4
:1011A0004018029003BDC046190000000029F0D08D
:1011B00003B5FFF7B9FF0EBC4243891A1847C04672
:1011C0007047C04670B505000C1E01D1002049E0F3
:1011D000002804D08369002B01D100F05DF9224B77
:1011E0009C4201D16C6808E0204B9C4201D1AC6864
:1011F00003E01F4B9C4200D1EC680C22A35E002B45
:10120000E4D02100280000F03FF8236B0600002BFB
:1012100006D0216A28009847002801DA0126764284
:10122000A3891B0603D52169280000F0DBFB616B55
:10123000002908D023004433994202D0280000F04E
:10124000D1FB00236363A16C002904D0280000F0C7
:10125000C9FB0023A36400F091F90023A38100F0EF
:101260008EF9300070BDC046F02A0000102B00003F
:10127000302B000010B5034B01001868FFF7A2FFE8
:1012800010BDC046A0030020F7B58A8905000C00F8
:1012900013075AD44B68002B02DC0B6C002B19DDB2
:1012A000E76A002F16D000232E682B6080235B0195
:1012B0001A4001D0606D14E00123216A2800B8476C
:1012C000431C0ED12B68002B0BD01D2B01D0162BED
:1012D00002D12E6000205AE04022A3891343A3814B
:1012E00055E0A3895B0706D56368C01A636B002BC2
:1012F00001D0236CC01A00230200216A2800E76A8B
:10130000B847A389421C06D129681D293AD8204A2A
:10131000CA40D20736D50022626022692260DB040F
:1013200005D5431C02D12B68002B00D16065616B91
:101330002E600029CED023004433994202D02800E9
:1013400000F050FB0020606321E00F69002FC1D046
:101350000B680F60DB1B01930023920700D14B69E0
:10136000A36003E0019B3F181B1A0193019B002B14
:10137000B0DD019B3A00216A2800A66AB047002828
:10138000F0DCA389402201201343A3814042FEBD2B
:10139000010040200B6970B505000C00002B01D145
:1013A00000201CE0002804D08369002B01D100F04C
:1013B00073F80B4B9C4201D16C6808E0094B9C42CE
:1013C00001D1AC6803E0084B9C4200D1EC680C22D0
:1013D000A35E002BE4D021002800FFF755FF70BD6D
:1013E000F02A0000102B0000302B000010B5011E69
:1013F00005D1054B0549186800F034FA03E0044BA9
:101400001868FFF7C7FF10BD542B000095130000AC
:10141000A003002010B5024900F024FA10BDC04618
:1014200095130000002310B504000360436083603F
:1014300081814366C281036143618361190008228F
:101440005C3000F0C6FA054B24626362044BA36271
:10145000044BE362044B236310BDC046611D0000D2
:10146000891D0000C11D0000ED1D000070B568253C
:101470004B1E5D430E002900743100F0F9FA041E82
:1014800008D000212A00016046600C30A06068325C
:1014900000F09FFA200070BD836913B50400002B93
:1014A00028D18364C3640365134B144A1B688262AA
:1014B0000193984201D101238361200000F020F8BC
:1014C0006060200000F01CF8A060200000F018F818
:1014D0000022E06004216068FFF7A4FF01220921D7
:1014E000A068FFF79FFF02221221E068FFF79AFF32
:1014F0000123A36113BDC046542B00001514000046
:10150000F8B51D4B06001D68AB69002B02D1280001
:10151000FFF7C2FF4835AC686B68013B05D40C226D
:10152000A75E002F10D06834F7E72B68002B01D09E
:101530002D68F0E704213000FFF798FF28600028AD
:10154000F6D10C23336016E0012320005B42E381D7
:101550000233A38167662760A760676027616761C0
:10156000A7615C300822390000F033FA200067637D
:10157000A763A764E764F8BD542B00007047704769
:10158000F7B50F00110001AA050000F00BFD061EC3
:1015900001D1002427E02800FFF7B2FF041EF8D095
:1015A000DB23019A5B0039002800FEF7ADFD00281F
:1015B00006DA0025FFF7E2FFA581FFF7E0FFE8E785
:1015C0000A4BE08163620A4BA681A362094B246245
:1015D000E362094B2363F30505D5022300222100B2
:1015E000280000F07BF82000FEBDC046611D000011
:1015F000891D0000C11D0000ED1D000010B5034B4A
:101600000A0001001868FFF7BBFF10BDA00300200F
:10161000F0B585B003931300060000200292039AF0
:10162000009153430A9C0193834242D0864205D0E5
:10163000B369834202D13000FFF72EFF1E4B9C425C
:1016400001D1746808E01D4B9C4201D1B46803E0ED
:101650001B4B9C4200D1F4686368002B01DA002325
:101660006360019D6768BD4217D921683A00009800
:1016700000F0A6F923682100DB192360009B3000ED
:10168000DB190093ED1B00F0DBFA0028EAD0019B88
:101690000299581BFFF746FD0BE02A0021680098CD
:1016A00000F08EF9636803985B1B636023685D1923
:1016B000256005B0F0BDC046F02A0000102B0000E8
:1016C000302B000007B5009313000A000100024808
:1016D0000068FFF79DFF0EBDA003002010B500F0CD
:1016E0000DF810BD10B513000A0001000248006893
:1016F00000F004F810BDC046A0030020F7B50500B7
:101700000C0001921E00002804D08369002B01D137
:10171000FFF7C2FE414B9C4201D16C6808E0404B90
:101720009C4201D1AC6803E03E4B9C4200D1EC6886
:101730008422A38952001340934203D12100280040
:10174000FFF728FEE36A0093002B01D11D3331E03F
:10175000012E05D0022E31D01623002E2AD12DE0E5
:1017600021002800FFF716FE8023A2895B011A40A2
:1017700001D0606D06E03300216A2800009EB0476A
:10178000431C18D0A3895A0707D56368C01A636B36
:10179000002B0AD0236CC01A07E01B0705D523686D
:1017A000002B02D022699B1AC018019B00261B182F
:1017B000019303E02B6001277F422DE02369002B7A
:1017C00003D12100280000F095F821002800FFF740
:1017D000E1FD071EEFD13300019A216A2800009E27
:1017E000B047431CE7D0616B002908D02300443385
:1017F000994202D0280000F0F5F80023636300212D
:1018000020002369A2892360074B61601340A381F4
:101810005C30082200F0DDF83800FEBDF02A000040
:10182000102B0000302B0000DFF7FFFFF7B548302A
:10183000040000260191002C12D0A5686768013FC2
:101840000CD4AB89012B07D90E22AB5E013303D038
:101850002800019B984706436835F0E72468EAE7CB
:101860003000FEBDF7B504000700002601914834A2
:10187000002C16D06368A5680093009B013B009381
:101880000DD4AB89012B08D90E22AB5E013304D0F5
:1018900029003800019B984706436835EDE7246826
:1018A000E6E73000FEBD00000E4B70B500251E00BF
:1018B0000D4CE41AA410A54204D0AB00F35898478D
:1018C0000135F8E7FEF7F4FB084B00251E00084C35
:1018D000E41AA410A54204D0AB00F3589847013590
:1018E000F8E770BD8C2B00008C2B00008C2B0000C7
:1018F0008C2B0000F0B58B8991B006000C009B0783
:1019000026D40E23C95E002904DA8023A5891D4050
:1019100010D10CE001AAFEF712FC0028F5DBF02341
:10192000029D1B021D401A4BED186B425D41802742
:10193000FF0001E0002540273900300000F098F852
:1019400000280CD1A3899A051FD402221343A38136
:1019500023004733236023610123636115E0802264
:101960000C4BB362A38920601343A381206167619C
:10197000002D0AD00E23E15E3000FEF7E5FB0028C3
:1019800003D00122A3891343A38111B0F0BDC04647
:1019900000E0FFFF1514000010B5034B01001868AC
:1019A00000F066F810BDC046A003002010B5034B40
:1019B0000100186800F016F810BDC046A003002012
:1019C000002310B59A4203D0CC5CC4540133F9E72C
:1019D00010BD03008218934202D019700133FAE758
:1019E0007047000030B500293ED004390B68002B49
:1019F00000DAC9181D4A13681400002B02D14B608D
:101A0000116031E08B420DD90A688818834203D1F6
:101A100018685B6882180A604B60216024E08A4283
:101A200003D813005A68002AF9D11D685C198C424A
:101A30000BD10968691858181960824214D11068CE
:101A40005268411819605A600EE08C4202D90C238A
:101A5000036009E008680C18A24203D114685268B8
:101A6000201808604A60596030BDC0461C0C002038
:101A7000032370B5CD1C9D43083506000C2D01D203
:101A80000C2505E0002D03DA0C230020336040E034
:101A9000A942F9D81F4B1C681A002100002913D055
:101AA0000B685B1B0DD40B2B02D90B60CC181EE00E
:101AB0008C4202D1636813601AE04B6863600C00CB
:101AC00016E00C004968E9E7134C2368002B03D1AA
:101AD0003000FEF7F1FA206029003000FEF7ECFA42
:101AE000431CD1D00323C41C9C43A0420AD12560CF
:101AF000200007220B30231D9043C31A09D05A42FD
:101B0000E25006E0211A3000FEF7D6FA431CEED16F
:101B1000BAE770BD1C0C0020180C00200FB40B4B52
:101B200013B51C68002C05D0A369002B02D120003E
:101B3000FFF7B2FC05AB049AA1682000019300F006
:101B400093FA16BC08BC04B01847C046A003002096
:101B500070B505000E00002804D08369002B01D168
:101B6000FFF79AFCAC68A3891B0702D52369002BF9
:101B700019D12100280000F0A1F9002813D001207C
:101B8000404245E03178002B1BDAA269934211DA1A
:101B90002200280000F03AF9013042424241D0B21E
:101BA0000028ECD10136A3683278013BA360002AFB
:101BB000E8D10CE023681970236819780A2903D149
:101BC000E6E723681970236801332360EAE7002BF6
:101BD00017DAA269934208DB0A232268137023688C
:101BE00019780A2911D1220001E022000A212800D7
:101BF00000F00CF9013042424241D0B2002806D038
:101C0000BDE70A23226813702368013323600A208A
:101C100070BD000010B5034B01001868FFF798FF76
:101C200010BDC046A0030020092310B582891340CF
:101C30000022092B02D1FFF7D9FB0200100010BDD2
:101C4000F8B505000C00002804D08369002B01D1F1
:101C5000FFF722FC3D4B9C4201D16C6808E03C4BF5
:101C60009C4201D1AC6803E03A4B9C4200D1EC6845
:101C70000023A289636093B2990663D459071AD4EA
:101C8000D90605D409232B6037331A43A28159E0C2
:101C9000082633420AD021002800FFF77BFB0028EA
:101CA00050D1A389A060B343A381A0610422A3897A
:101CB0001343A38112E0616B00290FD0230044334A
:101CC000994202D02800FFF78DFE0020236C60634C
:101CD0006360834202D0E36B236035E02369002B0D
:101CE00003D121002800FFF705FEA789BEB2B30784
:101CF0000FD00123A381184B18491868FFF796FDF0
:101D00000923A7813340092B03D121002800FFF7C5
:101D1000BBFA23692269236028006369216A656A26
:101D2000A84702006060002082420DDCA389824245
:101D300004D120221343A381013805E0402213433C
:101D40006060A38101204042F8BDC046F02A000037
:101D5000102B0000302B0000542B0000291C000029
:101D600070B50C000E25495FFEF7D3F9002803DBA0
:101D7000636D1B18636503E0A289024B1340A381C6
:101D800070BDC046FFEFFFFFF8B51F008B8905004F
:101D90000C001600DB0505D50E23C95E00220223C8
:101DA000FEF7C8F9A289054B28001340A381320031
:101DB0000E23E15E3B00FEF7B2F9F8BDFFEFFFFF37
:101DC00070B50C000E25495FFEF7B4F9A389421CDB
:101DD00003D1054A1340A38104E08022520113433A
:101DE000A381606570BDC046FFEFFFFF10B50E23F5
:101DF000C95EFEF79AF910BD02780B78002A03D06D
:101E0000013001319A42F7D0D01A7047F8B5050079
:101E10000F001400002804D08369002B01D1FFF7C4
:101E20003BFB234B9C4201D16C6808E0214B9C4258
:101E300001D1AC6803E0204B9C4200D1EC68A3695F
:101E4000A360A3891B070AD52369002B07D0236849
:101E50002269FEB2981A636998420FDB08E02100FC
:101E6000280000F02BF80028F1D0012040421DE0AE
:101E700021002800FFF78EFA0028F6D1A368013070
:101E8000013BA36023685A1C22601F70636998425B
:101E900005D0A3893000DB0708D50A2E06D1210022
:101EA0002800FFF777FA0028DFD13000F8BDC046E0
:101EB000F02A0000102B0000302B0000354B70B5CD
:101EC0001D6806000C00002D05D0AB69002B02D167
:101ED0002800FFF7E1FA304B9C4201D16C6808E022
:101EE0002E4B9C4201D1AC6803E02D4B9C4200D1AB
:101EF000EC68A3899AB2110723D4D10607D409222A
:101F00000120326037321343A381404240E053073F
:101F100013D5616B002908D023004433994202D0C5
:101F20003000FFF75FFD002363632422A3899343FE
:101F3000A38100236360236923600822A3891343DC
:101F4000A3812369002B0BD1A023A2899B001340FE
:101F500080229200934203D021003000FFF7CAFC98
:101F60000123A289134005D00023A36063695B426B
:101F7000A36103E0910700D46369A3600020236993
:101F8000834205D1130603D540231A43A2810138A9
:101F900070BDC046A0030020F02A0000102B0000F6
:101FA000302B00000B78F0B5722B0ED0772B07D0BA
:101FB000612B13D182248420A4000123400007E078
:101FC000C0240123E400082002E0002404202300B0
:101FD0008026102536011C27AC4610E0162303602E
:101FE000002018E0622D0FD0782D10D02B2D06D1B7
:101FF0006546B84328430325AB43013D2B430131DC
:102000000D78002DEED104E080256D02F6E7334314
:10201000F5E723431360F0BD936810B5013B93606F
:10202000002B05DA9469A34208DBCBB20A2B05D05A
:102030001368581C10601970C8B201E0FFF7E6FE83
:1020400010BDF8B506000F001400D518AC4208D03A
:1020500021783A003000FFF7DFFF0134431CF5D14F
:1020600000E00020F8BD0000F0B59FB006000F00B2
:1020700002920593002804D08369002B01D1FFF759
:102080000BFA7F4B9F4201D1776808E07D4B9F425E
:1020900001D1B76803E07C4B9F4200D1F768BB8950
:1020A0001B070AD53B69002B07D0002306AD6B61E7
:1020B00020336B761033AB763DE039003000FFF70C
:1020C000FDFE0028F1D001204042D6E0059A111D06
:1020D00012680591002A00DA7FE009920134237822
:1020E0002E2B00D18DE021780322684800F068FA99
:1020F000002807D0654B2A68C01A40238340134349
:102100002B6001342178631C0622614802932976F2
:1021100000F056FA002800D19DE05E4B002B00D065
:1021200090E00722059B07339343083305936B69BF
:10213000039A9B186B61029C2378002B04D1029BAD
:10214000E31A049312D003E0252BF8D00134F3E70F
:10215000049B029A39003000FFF773FF431C00D143
:1021600086E06A69049B944663446B612378002B84
:102170007ED00122002352426A6002A954325218D2
:1021800001342B60EB60AB601370AB6521780522E6
:10219000414800F015FA002808D03F4B2A68C01AC1
:1021A0000123834013432B600134EFE72B68DA06E9
:1021B00004D55322202102A8121811701A0704D541
:1021C00053222B2102A81218117022782A2A00D13A
:1021D0007CE7099B00200A2105E05242EA600222C6
:1021E00013432B607AE72278303A092A04D84B430C
:1021F00001349B180120F6E7002800D16FE709930E
:102200006DE763782A2B0AD1059B02341A1D1B68DF
:102210000592002B01DA01235B42079363E7002359
:102220000A201A0001346B6021783039092904D85A
:102230004243013452180123F6E7002B00D152E744
:10224000079250E705AB00933A00144B2900300089
:1022500000E000BF07E005AB00933A000F4B2900F8
:10226000300000F08BF80390039B013300D05EE751
:10227000BB895B0600D526E70B981FB0F0BDC046B2
:10228000F02A0000102B0000302B00005E2B000015
:10229000622B000000000000582B000043200000CB
:1022A000F7B5170001938A680B6900900C00934200
:1022B00000DA130022003B6043321278002A01D07A
:1022C00001333B6023689B0602D53B6802333B60C9
:1022D000062523681D401ED0230043331B785A1E59
:1022E0009341226892061CD53020E11843310870D2
:1022F00021005A1C45310978A2184332023311706B
:102300000FE022000123193201990098089EB0477E
:10231000431C0ED00135E3683A689B1A9D42F0DBFE
:10232000DAE72200019943320098089DA847431C30
:1023300002D10120404220E006232068E1683A688B
:1023400003400025042B03D18D1AEB43DB171D40FE
:10235000A3682269934201DD9B1AED180027BD4254
:102360000AD0220001231A3201990098089EB04732
:10237000431CDED00137F2E70020FEBDF0B58BB084
:1023800006920A0043320793059004920A7E0C00DD
:10239000109B6E2A00D1ABE011D8632A22D009D855
:1023A000002A00D1B5E0582A00D0C5E045310A70B6
:1023B000814A4FE0642A1DD0692A1BD0BCE0732AF1
:1023C00000D1AAE009D86F2A29D0702A00D0B3E042
:1023D000202209680A43226037E0752A1FD0782A34
:1023E00033D0A9E00E001A684236111D1960136837
:1023F0003370A4E021681A68080606D4490604D59B
:10240000111D19600023D55E02E0111D19601568C9
:10241000002D3BDA2D23049A6D42137036E02168BB
:102420001A68080606D4490604D51568111D1960F6
:10243000ADB202E0111D196015685F4B227E039357
:1024400008276F2A1DD00A271BE022007821453279
:1024500011705A4A19680392081D226818600D68A5
:10246000100602D4500600D5ADB2D30702D5202302
:102470001A4322601027002D03D1202322689A439B
:1024800022602300002243331A7002E00A274A4BDD
:1024900003936368A360002B09DB04222168914346
:1024A0002160002D05D1049E002B11D07BE0002D72
:1024B00079D0049E28003900FEF778FE039B013E88
:1024C0005B5C280033703900FEF72CFE051EF1D14D
:1024D000082F09D12368DB0706D563682269934278
:1024E00002DC3023013E3370049B9B1B23612BE0F5
:1024F00009681A68080607D4490605D5111D196030
:102500001368A28A1A8004E0111D196013686269B9
:102510001A600023049E236116E01A68111D1960D9
:10252000166800216268300000F04AF8002801D0E7
:10253000801B6060636803E026004236327001232E
:1025400023610023049A1370079B09AA00932100BA
:10255000069B0598FFF7A4FE431C02D101204042D0
:1025600027E02369320006990598079DA847431C78
:10257000F4D0236800259B070FD4099BE06898429C
:1025800017DA180015E02200012319320699059880
:10259000079EB047431CE1D00135E368099A9B1AB6
:1025A0009D42F0DBE9E72600039B42361B7833703F
:1025B0008EE70BB0F0BDC046692B00007A2B0000FF
:1025C000C9B28218904204D003788B4202D0013005
:1025D000F8E7002070474E4D492048414E444C4595
:1025E000520048415244204641554C542048414EE7
:1025F000444C45520044554D4D592048414E444CA1
:102600004552002A2A2A2052494F54206B65726E87
:10261000656C2070616E6963002A2A2A2068616CEB
:102620007465642E0A00323031342E31322D32344A
:1026300039312D67313966332D6C6F63616C686F8A
:1026400073742E6C6F63616C646F6D61696E2D6C59
:102650006564006B65726E656C5F696E69742829CC
:102660003A20546869732069732052494F542120DD
:102670002856657273696F6E3A202573290A006BBC
:1026800065726E656C5F696E697428293A2065729F
:10269000726F72206372656174696E672069646C21
:1026A00065207461736B2E0A006B65726E656C5FDA
:1026B000696E697428293A206572726F722063729C
:1026C000656174696E67206D61696E207461736BFA
:1026D0002E0A006B65726E656C5F696E69742829DD
:1026E0003A206A756D70696E6720696E746F206636
:1026F00069727374207461736B2E2E2E0A006964E4
:102700006C65006D61696E006C69666F5F696E7300
:102710006572743A206F76657277726974696E6754
:102720002061727261795B25695D203D3D202569DC
:1027300020776974682025690A0A0A0909546865BE
:10274000206C69666F2069732062726F6B656E2002
:102750006E6F772E0A0A0A00202D2020556E6465C0
:1027600066696E65642053796D626F6C202000206D
:102770002D2020434F4D4D4F4E20284375727265DA
:102780006E746C7920556E616C6C6F6361746564F6
:1027900029202000202D202041425320284E6F2048
:1027A00072656C6F636174696F6E29202000202D43
:1027B00020202573202000525F3338365F4E4F4E65
:1027C00045204E6F2072656C6F636174696F6E0097
:1027D000525F3338365F3332202853796D626F6C25
:1027E000202B204F66667365742900525F3338369C
:1027F0005F50433332202853796D626F6C202B2059
:102800004F6666736574202D2053656374696F6E1F
:10281000204F66667365742900525F3338365F4710
:102820004F543332202847202B2041202D2050297F
:1028300000525F3338365F504C54333220284C20DE
:102840002B2041202D20502900525F3338365F4322
:102850004F505920286E6F6E652900525F3338360D
:102860005F474C4F425F4441542028532900525F38
:102870003338365F4A4D505F534C4F54202853290C
:1028800000525F3338365F52454C4154495645201B
:102890002842202B20412900525F3338365F474FB2
:1028A000544F4646202853202B2041202D20474FAF
:1028B000542900525F3338365F474F544F46462005
:1028C00028474F54202B2041202D20502900556EA1
:1028D0006C69737465642F556E6B6E6F776E2F55D0
:1028E0006E737570706F727465642052656C6F637F
:1028F0006174696F6E20547970650020200A002091
:102900002D202A2A202564202A2A20000A0A2D2D7B
:102910002D2D2D2D2D2D2D2D2D2D2D2D2D2D2D2DE7
:102920002D2D2D2D2D2D2D2D2D2D2D0A0A005072E2
:10293000696E74696E6720537472696E67205461A2
:10294000626C6520456E74726965730A005B2025B0
:10295000645D2025730A005B25645D2025730A00F1
:102960005072696E74696E672053796D746162206C
:10297000656E74726965730A004964782020537922
:102980006D5F6E616D65202053656374696F6E2F96
:10299000547970650A002820256429202D2025738C
:1029A000200028256429202D2025732000507269DD
:1029B0006E74696E672052656C6F636174696F6EC7
:1029C00020656E74726965730A004964782020205E
:1029D0004F6666736574202020496E666F20202044
:1029E0002056616C75652020204E616D6520202089
:1029F0005365632E496E64782020202054797065D9
:102A00000A005B2025645D202D2020256C78202085
:102A1000256C78202020005B25645D202D2020255A
:102A20006C782020256C7820202000203020202069
:102A300000496478202053796D5F6E616D652020B8
:102A400053796D20547970652053656374696F6E96
:102A50002F547970650A00466F756E64203A5020D5
:102A6000002820256429202D202573202564002896
:102A7000256429202D202573202025640072620002
:102A80002E2F62696E2F73616D7232312D787072E4
:102A90006F2F6170702D746573742E656C660045C0
:102AA00072726F72203A20556E61626C6520746F8D
:102AB000206F70656E207468652066696C650A0019
:102AC0002E2E2F746573745F656C66007465737465
:102AD0000A004A756D70696E6720746F2030782522
:102AE0003038782E2E2E0A007265733D25690A0053
:102AF00000000000000000000000000000000000D6
:102B000000000000000000000000000000000000C5
:102B100000000000000000000000000000000000B5
:102B200000000000000000000000000000000000A5
:102B30000000000000000000000000000000000095
:102B40000000000000000000000000000000000085
:102B50004300000040030020232D302B2000686C30
:102B60004C006566674546470030313233343536B0
:102B700037383941424344454600303132333435E9
:0C2B800036373839616263646566000016
:102B8C001000000000000000017A5200027C0E01CF
:102B9C001B0C0D00100000001800000050F2FFFF8D
:082BAC0014000000000000000D
:102BB400240E0020FE260000032700007F454C461B
:102BC40001010100000000000000000002002800D4
:102BD4000100000054000000340000005001000017
:102BE4000202000534002000010028000C000B0044
:102BF40001000000000000000000000000000000D0
:102C0400940000009C000000070000000000010088
:102C14000120044B044A7B449A581060034A9B5891
:102C2400186070472200000000000000040000004B
:102C3400EFBEADDE40000000EFBEADDE9800000048
:102C440094000000000000000000000000000000EC
:102C54004743433A202841726368205265706F737A
:102C640069746F72792920352E322E30004131007B
:102C74000000616561626900012700000005436F7F
:102C8400727465782D4D302B00060C074D09011226
:102C940004140115011703180119011A011E040077
:102CA4002E7368737472746162002E746578742E66
:102CB40074657374002E646174612E79002E6461EE
:102CC40074612E61002E646174612E616C706861A0
:102CD4005F62657461002E676F74002E676F742ED7
:102CE400706C74002E6273732E6B002E6273732EDD
:102CF40078002E636F6D6D656E74002E41524D2EFB
:102D04006174747269627574657300000000000078
:102D140000000000000000000000000000000000AF
:102D2400000000000000000000000000000000009F
:102D3400000000000B00000001000000060000007D
:102D440054000000540000002000000000000000B7
:102D54000000000004000000000000001600000055
:102D64000100000003000000740000007400000073
:102D74000400000000000000000000000400000047
:102D8400000000001E00000001000000030000001D
:102D9400780000007800000004000000000000003B
:102DA40000000000040000000000000026000000F5
:102DB40001000000030000007C0000007C00000013
:102DC40004000000000000000000000004000000F7
:102DD40000000000370000000100000003000000B4
:102DE40080000000800000000800000000000000D7
:102DF4000000000004000000000000003C0000008F
:102E040001000000030000008800000088000000AA
:102E14000C0000000000000000000000040000009E
:102E2400040000004500000008000000030000004A
:102E34009400000094000000040000000000000062
:102E44000000000004000000000000004C0000002E
:102E54000800000003000000980000009400000037
:102E64000400000000000000000000000400000056
:102E740000000000530000000100000030000000CA
:102E840000000000940000001D000000000000008D
:102E94000000000001000000010000005C000000D0
:102EA400030000700000000000000000B1000000FA
:102EB40032000000000000000000000001000000DB
:102EC40000000000010000000300000000000000FA
:102ED40000000000E30000006C000000000000009F
:102EE400000000000100000000000000610000205C
:102EF40000000000F02A0000102B0000302B00001E
:102F040000000000000000000000000000000000BD
:102F1400502B000000000000000000000000000032
:102F2400000000000000000000000000000000009D
:102F3400000000000000000000000000000000008D
:102F4400000000000000000000000000000000007D
:042F54004003002016
:00000001FF
